{
  "_format": "hh3-artifact-1",
  "contractName": "VoteToken",
  "sourceName": "contracts/voteToken.sol",
  "abi": [
    {
      "inputs": [
        {
          "internalType": "string",
          "name": "_name",
          "type": "string"
        },
        {
          "internalType": "string",
          "name": "_symbol",
          "type": "string"
        },
        {
          "internalType": "uint256",
          "name": "_maxVoters",
          "type": "uint256"
        }
      ],
      "stateMutability": "nonpayable",
      "type": "constructor"
    },
    {
      "inputs": [
        {
          "internalType": "uint256",
          "name": "increasedSupply",
          "type": "uint256"
        },
        {
          "internalType": "uint256",
          "name": "cap",
          "type": "uint256"
        }
      ],
      "name": "ERC20ExceededCap",
      "type": "error"
    },
    {
      "inputs": [
        {
          "internalType": "address",
          "name": "spender",
          "type": "address"
        },
        {
          "internalType": "uint256",
          "name": "allowance",
          "type": "uint256"
        },
        {
          "internalType": "uint256",
          "name": "needed",
          "type": "uint256"
        }
      ],
      "name": "ERC20InsufficientAllowance",
      "type": "error"
    },
    {
      "inputs": [
        {
          "internalType": "address",
          "name": "sender",
          "type": "address"
        },
        {
          "internalType": "uint256",
          "name": "balance",
          "type": "uint256"
        },
        {
          "internalType": "uint256",
          "name": "needed",
          "type": "uint256"
        }
      ],
      "name": "ERC20InsufficientBalance",
      "type": "error"
    },
    {
      "inputs": [
        {
          "internalType": "address",
          "name": "approver",
          "type": "address"
        }
      ],
      "name": "ERC20InvalidApprover",
      "type": "error"
    },
    {
      "inputs": [
        {
          "internalType": "uint256",
          "name": "cap",
          "type": "uint256"
        }
      ],
      "name": "ERC20InvalidCap",
      "type": "error"
    },
    {
      "inputs": [
        {
          "internalType": "address",
          "name": "receiver",
          "type": "address"
        }
      ],
      "name": "ERC20InvalidReceiver",
      "type": "error"
    },
    {
      "inputs": [
        {
          "internalType": "address",
          "name": "sender",
          "type": "address"
        }
      ],
      "name": "ERC20InvalidSender",
      "type": "error"
    },
    {
      "inputs": [
        {
          "internalType": "address",
          "name": "spender",
          "type": "address"
        }
      ],
      "name": "ERC20InvalidSpender",
      "type": "error"
    },
    {
      "anonymous": false,
      "inputs": [
        {
          "indexed": true,
          "internalType": "address",
          "name": "owner",
          "type": "address"
        },
        {
          "indexed": true,
          "internalType": "address",
          "name": "spender",
          "type": "address"
        },
        {
          "indexed": false,
          "internalType": "uint256",
          "name": "value",
          "type": "uint256"
        }
      ],
      "name": "Approval",
      "type": "event"
    },
    {
      "anonymous": false,
      "inputs": [
        {
          "indexed": true,
          "internalType": "address",
          "name": "from",
          "type": "address"
        },
        {
          "indexed": true,
          "internalType": "address",
          "name": "to",
          "type": "address"
        },
        {
          "indexed": false,
          "internalType": "uint256",
          "name": "value",
          "type": "uint256"
        }
      ],
      "name": "Transfer",
      "type": "event"
    },
    {
      "inputs": [
        {
          "internalType": "address",
          "name": "owner",
          "type": "address"
        },
        {
          "internalType": "address",
          "name": "spender",
          "type": "address"
        }
      ],
      "name": "allowance",
      "outputs": [
        {
          "internalType": "uint256",
          "name": "",
          "type": "uint256"
        }
      ],
      "stateMutability": "view",
      "type": "function"
    },
    {
      "inputs": [
        {
          "internalType": "address",
          "name": "spender",
          "type": "address"
        },
        {
          "internalType": "uint256",
          "name": "value",
          "type": "uint256"
        }
      ],
      "name": "approve",
      "outputs": [
        {
          "internalType": "bool",
          "name": "",
          "type": "bool"
        }
      ],
      "stateMutability": "nonpayable",
      "type": "function"
    },
    {
      "inputs": [
        {
          "internalType": "address",
          "name": "account",
          "type": "address"
        }
      ],
      "name": "balanceOf",
      "outputs": [
        {
          "internalType": "uint256",
          "name": "",
          "type": "uint256"
        }
      ],
      "stateMutability": "view",
      "type": "function"
    },
    {
      "inputs": [
        {
          "internalType": "uint256",
          "name": "value",
          "type": "uint256"
        }
      ],
      "name": "burn",
      "outputs": [],
      "stateMutability": "nonpayable",
      "type": "function"
    },
    {
      "inputs": [
        {
          "internalType": "address",
          "name": "voter",
          "type": "address"
        }
      ],
      "name": "burn",
      "outputs": [],
      "stateMutability": "nonpayable",
      "type": "function"
    },
    {
      "inputs": [
        {
          "internalType": "address",
          "name": "account",
          "type": "address"
        },
        {
          "internalType": "uint256",
          "name": "value",
          "type": "uint256"
        }
      ],
      "name": "burnFrom",
      "outputs": [],
      "stateMutability": "nonpayable",
      "type": "function"
    },
    {
      "inputs": [],
      "name": "cap",
      "outputs": [
        {
          "internalType": "uint256",
          "name": "",
          "type": "uint256"
        }
      ],
      "stateMutability": "view",
      "type": "function"
    },
    {
      "inputs": [],
      "name": "decimals",
      "outputs": [
        {
          "internalType": "uint8",
          "name": "",
          "type": "uint8"
        }
      ],
      "stateMutability": "view",
      "type": "function"
    },
    {
      "inputs": [
        {
          "internalType": "address",
          "name": "voter",
          "type": "address"
        }
      ],
      "name": "mint",
      "outputs": [],
      "stateMutability": "nonpayable",
      "type": "function"
    },
    {
      "inputs": [],
      "name": "name",
      "outputs": [
        {
          "internalType": "string",
          "name": "",
          "type": "string"
        }
      ],
      "stateMutability": "view",
      "type": "function"
    },
    {
      "inputs": [
        {
          "internalType": "address",
          "name": "_votingContract",
          "type": "address"
        }
      ],
      "name": "setVotingContract",
      "outputs": [],
      "stateMutability": "nonpayable",
      "type": "function"
    },
    {
      "inputs": [],
      "name": "symbol",
      "outputs": [
        {
          "internalType": "string",
          "name": "",
          "type": "string"
        }
      ],
      "stateMutability": "view",
      "type": "function"
    },
    {
      "inputs": [],
      "name": "totalSupply",
      "outputs": [
        {
          "internalType": "uint256",
          "name": "",
          "type": "uint256"
        }
      ],
      "stateMutability": "view",
      "type": "function"
    },
    {
      "inputs": [
        {
          "internalType": "address",
          "name": "to",
          "type": "address"
        },
        {
          "internalType": "uint256",
          "name": "value",
          "type": "uint256"
        }
      ],
      "name": "transfer",
      "outputs": [
        {
          "internalType": "bool",
          "name": "",
          "type": "bool"
        }
      ],
      "stateMutability": "nonpayable",
      "type": "function"
    },
    {
      "inputs": [
        {
          "internalType": "address",
          "name": "from",
          "type": "address"
        },
        {
          "internalType": "address",
          "name": "to",
          "type": "address"
        },
        {
          "internalType": "uint256",
          "name": "value",
          "type": "uint256"
        }
      ],
      "name": "transferFrom",
      "outputs": [
        {
          "internalType": "bool",
          "name": "",
          "type": "bool"
        }
      ],
      "stateMutability": "nonpayable",
      "type": "function"
    }
  ],
  "bytecode": "0x60a060405234801561000f575f5ffd5b50604051611ef1380380611ef183398181016040528101906100319190610297565b61003f61010f60201b60201c565b600a61004b9190610487565b8161005691906104d1565b838381600390816100679190610719565b5080600490816100779190610719565b5050505f81036100be575f6040517f392e1e270000000000000000000000000000000000000000000000000000000081526004016100b59190610821565b60405180910390fd5b8060808181525050503360055f6101000a81548173ffffffffffffffffffffffffffffffffffffffff021916908373ffffffffffffffffffffffffffffffffffffffff16021790555050505061083a565b5f6012905090565b5f604051905090565b5f5ffd5b5f5ffd5b5f5ffd5b5f5ffd5b5f601f19601f8301169050919050565b7f4e487b71000000000000000000000000000000000000000000000000000000005f52604160045260245ffd5b61017682610130565b810181811067ffffffffffffffff8211171561019557610194610140565b5b80604052505050565b5f6101a7610117565b90506101b3828261016d565b919050565b5f67ffffffffffffffff8211156101d2576101d1610140565b5b6101db82610130565b9050602081019050919050565b8281835e5f83830152505050565b5f610208610203846101b8565b61019e565b9050828152602081018484840111156102245761022361012c565b5b61022f8482856101e8565b509392505050565b5f82601f83011261024b5761024a610128565b5b815161025b8482602086016101f6565b91505092915050565b5f819050919050565b61027681610264565b8114610280575f5ffd5b50565b5f815190506102918161026d565b92915050565b5f5f5f606084860312156102ae576102ad610120565b5b5f84015167ffffffffffffffff8111156102cb576102ca610124565b5b6102d786828701610237565b935050602084015167ffffffffffffffff8111156102f8576102f7610124565b5b61030486828701610237565b925050604061031586828701610283565b9150509250925092565b7f4e487b71000000000000000000000000000000000000000000000000000000005f52601160045260245ffd5b5f8160011c9050919050565b5f5f8291508390505b60018511156103a15780860481111561037d5761037c61031f565b5b600185161561038c5780820291505b808102905061039a8561034c565b9450610361565b94509492505050565b5f826103b95760019050610474565b816103c6575f9050610474565b81600181146103dc57600281146103e657610415565b6001915050610474565b60ff8411156103f8576103f761031f565b5b8360020a91508482111561040f5761040e61031f565b5b50610474565b5060208310610133831016604e8410600b841016171561044a5782820a9050838111156104455761044461031f565b5b610474565b6104578484846001610358565b9250905081840481111561046e5761046d61031f565b5b81810290505b9392505050565b5f60ff82169050919050565b5f61049182610264565b915061049c8361047b565b92506104c97fffffffffffffffffffffffffffffffffffffffffffffffffffffffffffffffff84846103aa565b905092915050565b5f6104db82610264565b91506104e683610264565b92508282026104f481610264565b9150828204841483151761050b5761050a61031f565b5b5092915050565b5f81519050919050565b7f4e487b71000000000000000000000000000000000000000000000000000000005f52602260045260245ffd5b5f600282049050600182168061056057607f821691505b6020821081036105735761057261051c565b5b50919050565b5f819050815f5260205f209050919050565b5f6020601f8301049050919050565b5f82821b905092915050565b5f600883026105d57fffffffffffffffffffffffffffffffffffffffffffffffffffffffffffffffff8261059a565b6105df868361059a565b95508019841693508086168417925050509392505050565b5f819050919050565b5f61061a61061561061084610264565b6105f7565b610264565b9050919050565b5f819050919050565b61063383610600565b61064761063f82610621565b8484546105a6565b825550505050565b5f5f905090565b61065e61064f565b61066981848461062a565b505050565b5b8181101561068c576106815f82610656565b60018101905061066f565b5050565b601f8211156106d1576106a281610579565b6106ab8461058b565b810160208510156106ba578190505b6106ce6106c68561058b565b83018261066e565b50505b505050565b5f82821c905092915050565b5f6106f15f19846008026106d6565b1980831691505092915050565b5f61070983836106e2565b9150826002028217905092915050565b61072282610512565b67ffffffffffffffff81111561073b5761073a610140565b5b6107458254610549565b610750828285610690565b5f60209050601f831160018114610781575f841561076f578287015190505b61077985826106fe565b8655506107e0565b601f19841661078f86610579565b5f5b828110156107b657848901518255600182019150602085019450602081019050610791565b868310156107d357848901516107cf601f8916826106e2565b8355505b6001600288020188555050505b505050505050565b5f819050919050565b5f61080b610806610801846107e8565b6105f7565b610264565b9050919050565b61081b816107f1565b82525050565b5f6020820190506108345f830184610812565b92915050565b60805161169f6108525f395f6103fd015261169f5ff3fe608060405234801561000f575f5ffd5b50600436106100f3575f3560e01c80636a6278421161009557806395d89b411161006457806395d89b411461026f578063a069c1ac1461028d578063a9059cbb146102a9578063dd62ed3e146102d9576100f3565b80636a627842146101eb57806370a082311461020757806379cc67901461023757806389afcb4414610253576100f3565b806323b872dd116100d157806323b872dd14610163578063313ce56714610193578063355274ea146101b157806342966c68146101cf576100f3565b806306fdde03146100f7578063095ea7b31461011557806318160ddd14610145575b5f5ffd5b6100ff610309565b60405161010c9190610fd4565b60405180910390f35b61012f600480360381019061012a9190611085565b610399565b60405161013c91906110dd565b60405180910390f35b61014d6103bb565b60405161015a9190611105565b60405180910390f35b61017d6004803603810190610178919061111e565b6103c4565b60405161018a91906110dd565b60405180910390f35b61019b6103f2565b6040516101a89190611189565b60405180910390f35b6101b96103fa565b6040516101c69190611105565b60405180910390f35b6101e960048036038101906101e491906111a2565b610421565b005b610205600480360381019061020091906111cd565b610435565b005b610221600480360381019061021c91906111cd565b610461565b60405161022e9190611105565b60405180910390f35b610251600480360381019061024c9190611085565b6104a6565b005b61026d600480360381019061026891906111cd565b6104c6565b005b610277610581565b6040516102849190610fd4565b60405180910390f35b6102a760048036038101906102a291906111cd565b610611565b005b6102c360048036038101906102be9190611085565b6106e3565b6040516102d091906110dd565b60405180910390f35b6102f360048036038101906102ee91906111f8565b610705565b6040516103009190611105565b60405180910390f35b60606003805461031890611263565b80601f016020809104026020016040519081016040528092919081815260200182805461034490611263565b801561038f5780601f106103665761010080835404028352916020019161038f565b820191905f5260205f20905b81548152906001019060200180831161037257829003601f168201915b5050505050905090565b5f5f6103a3610787565b90506103b081858561078e565b600191505092915050565b5f600254905090565b5f5f6103ce610787565b90506103db8582856107a0565b6103e6858585610833565b60019150509392505050565b5f6012905090565b5f7f0000000000000000000000000000000000000000000000000000000000000000905090565b61043261042c610787565b82610923565b50565b61045e816104416103f2565b600a61044d91906113ef565b60016104599190611439565b6109a2565b50565b5f5f5f8373ffffffffffffffffffffffffffffffffffffffff1673ffffffffffffffffffffffffffffffffffffffff1681526020019081526020015f20549050919050565b6104b8826104b2610787565b836107a0565b6104c28282610923565b5050565b60065f9054906101000a900473ffffffffffffffffffffffffffffffffffffffff1673ffffffffffffffffffffffffffffffffffffffff163373ffffffffffffffffffffffffffffffffffffffff1614610555576040517f08c379a000000000000000000000000000000000000000000000000000000000815260040161054c906114c4565b60405180910390fd5b61057e816105616103f2565b600a61056d91906113ef565b60016105799190611439565b610923565b50565b60606004805461059090611263565b80601f01602080910402602001604051908101604052809291908181526020018280546105bc90611263565b80156106075780601f106105de57610100808354040283529160200191610607565b820191905f5260205f20905b8154815290600101906020018083116105ea57829003601f168201915b5050505050905090565b60055f9054906101000a900473ffffffffffffffffffffffffffffffffffffffff1673ffffffffffffffffffffffffffffffffffffffff163373ffffffffffffffffffffffffffffffffffffffff16146106a0576040517f08c379a00000000000000000000000000000000000000000000000000000000081526004016106979061152c565b60405180910390fd5b8060065f6101000a81548173ffffffffffffffffffffffffffffffffffffffff021916908373ffffffffffffffffffffffffffffffffffffffff16021790555050565b5f5f6106ed610787565b90506106fa818585610833565b600191505092915050565b5f60015f8473ffffffffffffffffffffffffffffffffffffffff1673ffffffffffffffffffffffffffffffffffffffff1681526020019081526020015f205f8373ffffffffffffffffffffffffffffffffffffffff1673ffffffffffffffffffffffffffffffffffffffff1681526020019081526020015f2054905092915050565b5f33905090565b61079b8383836001610a21565b505050565b5f6107ab8484610705565b90507fffffffffffffffffffffffffffffffffffffffffffffffffffffffffffffffff81101561082d578181101561081e578281836040517ffb8f41b200000000000000000000000000000000000000000000000000000000815260040161081593929190611559565b60405180910390fd5b61082c84848484035f610a21565b5b50505050565b5f73ffffffffffffffffffffffffffffffffffffffff168373ffffffffffffffffffffffffffffffffffffffff16036108a3575f6040517f96c6fd1e00000000000000000000000000000000000000000000000000000000815260040161089a919061158e565b60405180910390fd5b5f73ffffffffffffffffffffffffffffffffffffffff168273ffffffffffffffffffffffffffffffffffffffff1603610913575f6040517fec442f0500000000000000000000000000000000000000000000000000000000815260040161090a919061158e565b60405180910390fd5b61091e838383610bf0565b505050565b5f73ffffffffffffffffffffffffffffffffffffffff168273ffffffffffffffffffffffffffffffffffffffff1603610993575f6040517f96c6fd1e00000000000000000000000000000000000000000000000000000000815260040161098a919061158e565b60405180910390fd5b61099e825f83610bf0565b5050565b5f73ffffffffffffffffffffffffffffffffffffffff168273ffffffffffffffffffffffffffffffffffffffff1603610a12575f6040517fec442f05000000000000000000000000000000000000000000000000000000008152600401610a09919061158e565b60405180910390fd5b610a1d5f8383610bf0565b5050565b5f73ffffffffffffffffffffffffffffffffffffffff168473ffffffffffffffffffffffffffffffffffffffff1603610a91575f6040517fe602df05000000000000000000000000000000000000000000000000000000008152600401610a88919061158e565b60405180910390fd5b5f73ffffffffffffffffffffffffffffffffffffffff168373ffffffffffffffffffffffffffffffffffffffff1603610b01575f6040517f94280d62000000000000000000000000000000000000000000000000000000008152600401610af8919061158e565b60405180910390fd5b8160015f8673ffffffffffffffffffffffffffffffffffffffff1673ffffffffffffffffffffffffffffffffffffffff1681526020019081526020015f205f8573ffffffffffffffffffffffffffffffffffffffff1673ffffffffffffffffffffffffffffffffffffffff1681526020019081526020015f20819055508015610bea578273ffffffffffffffffffffffffffffffffffffffff168473ffffffffffffffffffffffffffffffffffffffff167f8c5be1e5ebec7d5bd14f71427d1e84f3dd0314c0f7b2291e5b200ac8c7c3b92584604051610be19190611105565b60405180910390a35b50505050565b5f73ffffffffffffffffffffffffffffffffffffffff168373ffffffffffffffffffffffffffffffffffffffff1614158015610c5857505f73ffffffffffffffffffffffffffffffffffffffff168273ffffffffffffffffffffffffffffffffffffffff1614155b15610c98576040517f08c379a0000000000000000000000000000000000000000000000000000000008152600401610c8f906115f1565b60405180910390fd5b610ca3838383610ca8565b505050565b610cb3838383610d4b565b5f73ffffffffffffffffffffffffffffffffffffffff168373ffffffffffffffffffffffffffffffffffffffff1603610d46575f610cef6103fa565b90505f610cfa6103bb565b905081811115610d435780826040517f9e79f854000000000000000000000000000000000000000000000000000000008152600401610d3a92919061160f565b60405180910390fd5b50505b505050565b5f73ffffffffffffffffffffffffffffffffffffffff168373ffffffffffffffffffffffffffffffffffffffff1603610d9b578060025f828254610d8f9190611636565b92505081905550610e69565b5f5f5f8573ffffffffffffffffffffffffffffffffffffffff1673ffffffffffffffffffffffffffffffffffffffff1681526020019081526020015f2054905081811015610e24578381836040517fe450d38c000000000000000000000000000000000000000000000000000000008152600401610e1b93929190611559565b60405180910390fd5b8181035f5f8673ffffffffffffffffffffffffffffffffffffffff1673ffffffffffffffffffffffffffffffffffffffff1681526020019081526020015f2081905550505b5f73ffffffffffffffffffffffffffffffffffffffff168273ffffffffffffffffffffffffffffffffffffffff1603610eb0578060025f8282540392505081905550610efa565b805f5f8473ffffffffffffffffffffffffffffffffffffffff1673ffffffffffffffffffffffffffffffffffffffff1681526020019081526020015f205f82825401925050819055505b8173ffffffffffffffffffffffffffffffffffffffff168373ffffffffffffffffffffffffffffffffffffffff167fddf252ad1be2c89b69c2b068fc378daa952ba7f163c4a11628f55a4df523b3ef83604051610f579190611105565b60405180910390a3505050565b5f81519050919050565b5f82825260208201905092915050565b8281835e5f83830152505050565b5f601f19601f8301169050919050565b5f610fa682610f64565b610fb08185610f6e565b9350610fc0818560208601610f7e565b610fc981610f8c565b840191505092915050565b5f6020820190508181035f830152610fec8184610f9c565b905092915050565b5f5ffd5b5f73ffffffffffffffffffffffffffffffffffffffff82169050919050565b5f61102182610ff8565b9050919050565b61103181611017565b811461103b575f5ffd5b50565b5f8135905061104c81611028565b92915050565b5f819050919050565b61106481611052565b811461106e575f5ffd5b50565b5f8135905061107f8161105b565b92915050565b5f5f6040838503121561109b5761109a610ff4565b5b5f6110a88582860161103e565b92505060206110b985828601611071565b9150509250929050565b5f8115159050919050565b6110d7816110c3565b82525050565b5f6020820190506110f05f8301846110ce565b92915050565b6110ff81611052565b82525050565b5f6020820190506111185f8301846110f6565b92915050565b5f5f5f6060848603121561113557611134610ff4565b5b5f6111428682870161103e565b93505060206111538682870161103e565b925050604061116486828701611071565b9150509250925092565b5f60ff82169050919050565b6111838161116e565b82525050565b5f60208201905061119c5f83018461117a565b92915050565b5f602082840312156111b7576111b6610ff4565b5b5f6111c484828501611071565b91505092915050565b5f602082840312156111e2576111e1610ff4565b5b5f6111ef8482850161103e565b91505092915050565b5f5f6040838503121561120e5761120d610ff4565b5b5f61121b8582860161103e565b925050602061122c8582860161103e565b9150509250929050565b7f4e487b71000000000000000000000000000000000000000000000000000000005f52602260045260245ffd5b5f600282049050600182168061127a57607f821691505b60208210810361128d5761128c611236565b5b50919050565b7f4e487b71000000000000000000000000000000000000000000000000000000005f52601160045260245ffd5b5f8160011c9050919050565b5f5f8291508390505b6001851115611315578086048111156112f1576112f0611293565b5b60018516156113005780820291505b808102905061130e856112c0565b94506112d5565b94509492505050565b5f8261132d57600190506113e8565b8161133a575f90506113e8565b8160018114611350576002811461135a57611389565b60019150506113e8565b60ff84111561136c5761136b611293565b5b8360020a91508482111561138357611382611293565b5b506113e8565b5060208310610133831016604e8410600b84101617156113be5782820a9050838111156113b9576113b8611293565b5b6113e8565b6113cb84848460016112cc565b925090508184048111156113e2576113e1611293565b5b81810290505b9392505050565b5f6113f982611052565b91506114048361116e565b92506114317fffffffffffffffffffffffffffffffffffffffffffffffffffffffffffffffff848461131e565b905092915050565b5f61144382611052565b915061144e83611052565b925082820261145c81611052565b9150828204841483151761147357611472611293565b5b5092915050565b7f4f6e6c7920766f74696e6720636f6e74726163742063616e2063616c6c0000005f82015250565b5f6114ae601d83610f6e565b91506114b98261147a565b602082019050919050565b5f6020820190508181035f8301526114db816114a2565b9050919050565b7f4f6e6c79206f776e65722063616e2063616c6c2e0000000000000000000000005f82015250565b5f611516601483610f6e565b9150611521826114e2565b602082019050919050565b5f6020820190508181035f8301526115438161150a565b9050919050565b61155381611017565b82525050565b5f60608201905061156c5f83018661154a565b61157960208301856110f6565b61158660408301846110f6565b949350505050565b5f6020820190506115a15f83018461154a565b92915050565b7f5472616e73666572732064697361626c656400000000000000000000000000005f82015250565b5f6115db601283610f6e565b91506115e6826115a7565b602082019050919050565b5f6020820190508181035f830152611608816115cf565b9050919050565b5f6040820190506116225f8301856110f6565b61162f60208301846110f6565b9392505050565b5f61164082611052565b915061164b83611052565b925082820190508082111561166357611662611293565b5b9291505056fea2646970667358221220b8ffef72981e226c184c629ce9f3820f691696befe3ca8d7bd48a685d0ce88c764736f6c634300081c0033",
  "linkReferences": {},
  "deployedLinkReferences": {},
  "immutableReferences": {
    "784": [
      {
        "length": 32,
        "start": 1021
      }
    ]
  },
  "inputSourceName": "project/contracts/voteToken.sol",
  "buildInfoId": "solc-0_8_28-fbd1bf31b2229f65fa26c19e6a6f0bc651883874"
}