{
    "_format": "hh3-artifact-1",
    "contractName": "Voting",
    "sourceName": "contracts/e-voting.sol",
    "abi": [
        {
            "inputs": [
                {
                    "internalType": "uint256",
                    "name": "_candidateRegistrationPeriod",
                    "type": "uint256"
                },
                {
                    "internalType": "uint256",
                    "name": "_voterRegistrationPeriod",
                    "type": "uint256"
                },
                {
                    "internalType": "uint256",
                    "name": "_votingPeriod",
                    "type": "uint256"
                }
            ],
            "stateMutability": "nonpayable",
            "type": "constructor"
        },
        {
            "anonymous": false,
            "inputs": [
                {
                    "indexed": true,
                    "internalType": "address",
                    "name": "candidate",
                    "type": "address"
                },
                {
                    "indexed": false,
                    "internalType": "string",
                    "name": "name",
                    "type": "string"
                }
            ],
            "name": "candidateRegistrationCompleted",
            "type": "event"
        },
        {
            "anonymous": false,
            "inputs": [
                {
                    "indexed": false,
                    "internalType": "string",
                    "name": "winner",
                    "type": "string"
                }
            ],
            "name": "resultsPhase",
            "type": "event"
        },
        {
            "anonymous": false,
            "inputs": [
                {
                    "indexed": true,
                    "internalType": "address",
                    "name": "voter",
                    "type": "address"
                }
            ],
            "name": "voterRegistrationCompleted",
            "type": "event"
        },
        {
            "anonymous": false,
            "inputs": [],
            "name": "votingPhaseEnded",
            "type": "event"
        },
        {
            "anonymous": false,
            "inputs": [],
            "name": "votingPhaseStarted",
            "type": "event"
        },
        {
            "inputs": [],
            "name": "admin",
            "outputs": [
                {
                    "internalType": "address",
                    "name": "",
                    "type": "address"
                }
            ],
            "stateMutability": "view",
            "type": "function"
        },
        {
            "inputs": [
                {
                    "internalType": "string",
                    "name": "_candidateName",
                    "type": "string"
                }
            ],
            "name": "candidateRegistration",
            "outputs": [],
            "stateMutability": "nonpayable",
            "type": "function"
        },
        {
            "inputs": [
                {
                    "internalType": "address",
                    "name": "",
                    "type": "address"
                }
            ],
            "name": "candidates",
            "outputs": [
                {
                    "internalType": "string",
                    "name": "name",
                    "type": "string"
                },
                {
                    "internalType": "uint256",
                    "name": "voteCount",
                    "type": "uint256"
                },
                {
                    "internalType": "bool",
                    "name": "candidateAdded",
                    "type": "bool"
                }
            ],
            "stateMutability": "view",
            "type": "function"
        },
        {
            "inputs": [
                {
                    "internalType": "uint256",
                    "name": "",
                    "type": "uint256"
                }
            ],
            "name": "candidatesList",
            "outputs": [
                {
                    "internalType": "address",
                    "name": "",
                    "type": "address"
                }
            ],
            "stateMutability": "view",
            "type": "function"
        },
        {
            "inputs": [],
            "name": "currentPhase",
            "outputs": [
                {
                    "internalType": "enum Voting.ElectionPhases",
                    "name": "",
                    "type": "uint8"
                }
            ],
            "stateMutability": "view",
            "type": "function"
        },
        {
            "inputs": [],
            "name": "electionWinner",
            "outputs": [
                {
                    "internalType": "string",
                    "name": "",
                    "type": "string"
                }
            ],
            "stateMutability": "nonpayable",
            "type": "function"
        },
        {
            "inputs": [
                {
                    "internalType": "address",
                    "name": "",
                    "type": "address"
                }
            ],
            "name": "isRegistered",
            "outputs": [
                {
                    "internalType": "bool",
                    "name": "",
                    "type": "bool"
                }
            ],
            "stateMutability": "view",
            "type": "function"
        },
        {
            "inputs": [],
            "name": "listOfCandidates",
            "outputs": [
                {
                    "internalType": "string[]",
                    "name": "",
                    "type": "string[]"
                }
            ],
            "stateMutability": "view",
            "type": "function"
        },
        {
            "inputs": [
                {
                    "internalType": "address",
                    "name": "_candidate",
                    "type": "address"
                }
            ],
            "name": "vote",
            "outputs": [],
            "stateMutability": "nonpayable",
            "type": "function"
        },
        {
            "inputs": [],
            "name": "voterRegistration",
            "outputs": [],
            "stateMutability": "nonpayable",
            "type": "function"
        },
        {
            "inputs": [
                {
                    "internalType": "uint256",
                    "name": "",
                    "type": "uint256"
                }
            ],
            "name": "votersList",
            "outputs": [
                {
                    "internalType": "address",
                    "name": "",
                    "type": "address"
                }
            ],
            "stateMutability": "view",
            "type": "function"
        },
        {
            "inputs": [],
            "name": "winner",
            "outputs": [
                {
                    "internalType": "string",
                    "name": "",
                    "type": "string"
                }
            ],
            "stateMutability": "view",
            "type": "function"
        },
        {
            "inputs": [
                {
                    "internalType": "uint256",
                    "name": "",
                    "type": "uint256"
                }
            ],
            "name": "winners",
            "outputs": [
                {
                    "internalType": "string",
                    "name": "",
                    "type": "string"
                }
            ],
            "stateMutability": "view",
            "type": "function"
        }
    ],
    "bytecode": "0x608060405234801561000f575f5ffd5b506040516128bc3803806128bc833981810160405281019061003191906100f7565b335f5f6101000a81548173ffffffffffffffffffffffffffffffffffffffff021916908373ffffffffffffffffffffffffffffffffffffffff16021790555082600a81905550816008819055508060078190555042600b81905550600a54600b5461009c9190610174565b6009819055506008546009546100b29190610174565b6006819055505050506101a7565b5f5ffd5b5f819050919050565b6100d6816100c4565b81146100e0575f5ffd5b50565b5f815190506100f1816100cd565b92915050565b5f5f5f6060848603121561010e5761010d6100c0565b5b5f61011b868287016100e3565b935050602061012c868287016100e3565b925050604061013d868287016100e3565b9150509250925092565b7f4e487b71000000000000000000000000000000000000000000000000000000005f52601160045260245ffd5b5f61017e826100c4565b9150610189836100c4565b92508282019050808211156101a1576101a0610147565b5b92915050565b612708806101b45f395ff3fe608060405234801561000f575f5ffd5b50600436106100cd575f3560e01c80638ab66a901161008a578063df2d5ec711610064578063df2d5ec714610213578063dfbf53ae14610243578063e5aed3eb14610261578063f851a4401461027d576100cd565b80638ab66a9014610181578063a2fb1175146101b3578063c3c5a547146101e3576100cd565b8063055ad42e146100d15780630e58a249146100ef57806332fab0c71461010d5780636dd7d8ea1461012b5780636f6379e31461014757806372ce73ab14610151575b5f5ffd5b6100d961029b565b6040516100e6919061170e565b60405180910390f35b6100f7610300565b6040516101049190611797565b60405180910390f35b61011561086f565b60405161012291906118ba565b60405180910390f35b61014560048036038101906101409190611945565b610a0d565b005b61014f610cfb565b005b61016b600480360381019061016691906119a3565b610f94565b60405161017891906119dd565b60405180910390f35b61019b60048036038101906101969190611945565b610fcf565b6040516101aa93929190611a1f565b60405180910390f35b6101cd60048036038101906101c891906119a3565b611087565b6040516101da9190611797565b60405180910390f35b6101fd60048036038101906101f89190611945565b61112d565b60405161020a9190611a5b565b60405180910390f35b61022d600480360381019061022891906119a3565b61114a565b60405161023a91906119dd565b60405180910390f35b61024b611185565b6040516102589190611797565b60405180910390f35b61027b60048036038101906102769190611ba0565b611211565b005b6102856115de565b60405161029291906119dd565b60405180910390f35b5f600a54600b546102ac9190611c14565b42116102ba575f90506102fd565b6008546009546102ca9190611c14565b42116102d957600190506102fd565b6007546006546102e99190611c14565b42116102f857600290506102fd565b600390505b90565b60606006546007546103129190611c14565b421015610354576040517f08c379a000000000000000000000000000000000000000000000000000000000815260040161034b90611c91565b60405180910390fd5b600d5f6103619190611602565b5f5f90505f5f90505f5f5f90505b600180549050811015610563578360035f6001848154811061039457610393611caf565b5b905f5260205f20015f9054906101000a900473ffffffffffffffffffffffffffffffffffffffff1673ffffffffffffffffffffffffffffffffffffffff1673ffffffffffffffffffffffffffffffffffffffff1681526020019081526020015f206001015411156104c45760035f6001838154811061041657610415611caf565b5b905f5260205f20015f9054906101000a900473ffffffffffffffffffffffffffffffffffffffff1673ffffffffffffffffffffffffffffffffffffffff1673ffffffffffffffffffffffffffffffffffffffff1681526020019081526020015f20600101549350600192506001818154811061049557610494611caf565b5b905f5260205f20015f9054906101000a900473ffffffffffffffffffffffffffffffffffffffff169150610556565b8360035f600184815481106104dc576104db611caf565b5b905f5260205f20015f9054906101000a900473ffffffffffffffffffffffffffffffffffffffff1673ffffffffffffffffffffffffffffffffffffffff1673ffffffffffffffffffffffffffffffffffffffff1681526020019081526020015f20600101540361055557828061055190611cdc565b9350505b5b808060010191505061036f565b505f83036105b5576040518060400160405280600a81526020017f4e6f626f647920576f6e00000000000000000000000000000000000000000000815250600c90816105af9190611f20565b506107a6565b6001821115610756575f5f90505b60018054905081101561070b578360035f600184815481106105e8576105e7611caf565b5b905f5260205f20015f9054906101000a900473ffffffffffffffffffffffffffffffffffffffff1673ffffffffffffffffffffffffffffffffffffffff1673ffffffffffffffffffffffffffffffffffffffff1681526020019081526020015f2060010154036106fe57600d60035f6001848154811061066b5761066a611caf565b5b905f5260205f20015f9054906101000a900473ffffffffffffffffffffffffffffffffffffffff1673ffffffffffffffffffffffffffffffffffffffff1673ffffffffffffffffffffffffffffffffffffffff1681526020019081526020015f205f01908060018154018082558091505060019003905f5260205f20015f9091909190915090816106fc9190612016565b505b80806001019150506105c3565b506040518060400160405280601481526020017f5449452e204e6f20636c6561722077696e6e6572000000000000000000000000815250600c90816107509190611f20565b506107a5565b60035f8273ffffffffffffffffffffffffffffffffffffffff1673ffffffffffffffffffffffffffffffffffffffff1681526020019081526020015f205f01600c90816107a39190612016565b505b5b7f3555fbb985baf3e5b68bb6bafdc882479519df524311b1c4739ea66fc8bc902c600c6040516107d6919061217c565b60405180910390a1600c80546107eb90611d50565b80601f016020809104026020016040519081016040528092919081815260200182805461081790611d50565b80156108625780601f1061083957610100808354040283529160200191610862565b820191905f5260205f20905b81548152906001019060200180831161084557829003601f168201915b5050505050935050505090565b60605f60018054905067ffffffffffffffff81111561089157610890611a7c565b5b6040519080825280602002602001820160405280156108c457816020015b60608152602001906001900390816108af5790505b5090505f5f90505b600180549050811015610a055760035f600183815481106108f0576108ef611caf565b5b905f5260205f20015f9054906101000a900473ffffffffffffffffffffffffffffffffffffffff1673ffffffffffffffffffffffffffffffffffffffff1673ffffffffffffffffffffffffffffffffffffffff1681526020019081526020015f205f01805461095e90611d50565b80601f016020809104026020016040519081016040528092919081815260200182805461098a90611d50565b80156109d55780601f106109ac576101008083540402835291602001916109d5565b820191905f5260205f20905b8154815290600101906020018083116109b857829003601f168201915b50505050508282815181106109ed576109ec611caf565b5b602002602001018190525080806001019150506108cc565b508091505090565b60045f3373ffffffffffffffffffffffffffffffffffffffff1673ffffffffffffffffffffffffffffffffffffffff1681526020019081526020015f205f9054906101000a900460ff16610a96576040517f08c379a0000000000000000000000000000000000000000000000000000000008152600401610a8d906121e6565b60405180910390fd5b60055f3373ffffffffffffffffffffffffffffffffffffffff1673ffffffffffffffffffffffffffffffffffffffff1681526020019081526020015f205f9054906101000a900460ff1615610b20576040517f08c379a0000000000000000000000000000000000000000000000000000000008152600401610b1790612274565b60405180910390fd5b600654600754610b309190611c14565b4210610b71576040517f08c379a0000000000000000000000000000000000000000000000000000000008152600401610b68906122dc565b60405180910390fd5b60035f8273ffffffffffffffffffffffffffffffffffffffff1673ffffffffffffffffffffffffffffffffffffffff1681526020019081526020015f206002015f9054906101000a900460ff16610bfd576040517f08c379a0000000000000000000000000000000000000000000000000000000008152600401610bf49061236a565b60405180910390fd5b600160035f8373ffffffffffffffffffffffffffffffffffffffff1673ffffffffffffffffffffffffffffffffffffffff1681526020019081526020015f206001015f828254610c4d9190611c14565b92505081905550600160055f3373ffffffffffffffffffffffffffffffffffffffff1673ffffffffffffffffffffffffffffffffffffffff1681526020019081526020015f205f6101000a81548160ff021916908315150217905550600754600654610cb99190611c14565b600142610cc69190611c14565b10610cf8577f4eea69e9c25dfff98e52bcaeef630a2cf029f77812e85c332ce46524591a61ff60405160405180910390a15b50565b5f5f9054906101000a900473ffffffffffffffffffffffffffffffffffffffff1673ffffffffffffffffffffffffffffffffffffffff163373ffffffffffffffffffffffffffffffffffffffff1603610d89576040517f08c379a0000000000000000000000000000000000000000000000000000000008152600401610d80906123d2565b60405180910390fd5b600854600954610d999190611c14565b4210610dda576040517f08c379a0000000000000000000000000000000000000000000000000000000008152600401610dd190612460565b60405180910390fd5b60045f3373ffffffffffffffffffffffffffffffffffffffff1673ffffffffffffffffffffffffffffffffffffffff1681526020019081526020015f205f9054906101000a900460ff1615610e64576040517f08c379a0000000000000000000000000000000000000000000000000000000008152600401610e5b906124c8565b60405180910390fd5b600160045f3373ffffffffffffffffffffffffffffffffffffffff1673ffffffffffffffffffffffffffffffffffffffff1681526020019081526020015f205f6101000a81548160ff021916908315150217905550600233908060018154018082558091505060019003905f5260205f20015f9091909190916101000a81548173ffffffffffffffffffffffffffffffffffffffff021916908373ffffffffffffffffffffffffffffffffffffffff1602179055503373ffffffffffffffffffffffffffffffffffffffff167f3f3e91f86674df7cabae5794907b850b0b176b324034021d680abe0ad8689ae960405160405180910390a26006544210610f92577f1d56eb50d6cb8f56779087cdd27e455174f91c77f1b8d0ad9e74b77e983060ef60405160405180910390a15b565b60028181548110610fa3575f80fd5b905f5260205f20015f915054906101000a900473ffffffffffffffffffffffffffffffffffffffff1681565b6003602052805f5260405f205f91509050805f018054610fee90611d50565b80601f016020809104026020016040519081016040528092919081815260200182805461101a90611d50565b80156110655780601f1061103c57610100808354040283529160200191611065565b820191905f5260205f20905b81548152906001019060200180831161104857829003601f168201915b505050505090806001015490806002015f9054906101000a900460ff16905083565b600d8181548110611096575f80fd5b905f5260205f20015f9150905080546110ae90611d50565b80601f01602080910402602001604051908101604052809291908181526020018280546110da90611d50565b80156111255780601f106110fc57610100808354040283529160200191611125565b820191905f5260205f20905b81548152906001019060200180831161110857829003601f168201915b505050505081565b6004602052805f5260405f205f915054906101000a900460ff1681565b60018181548110611159575f80fd5b905f5260205f20015f915054906101000a900473ffffffffffffffffffffffffffffffffffffffff1681565b600c805461119290611d50565b80601f01602080910402602001604051908101604052809291908181526020018280546111be90611d50565b80156112095780601f106111e057610100808354040283529160200191611209565b820191905f5260205f20905b8154815290600101906020018083116111ec57829003601f168201915b505050505081565b60035f3373ffffffffffffffffffffffffffffffffffffffff1673ffffffffffffffffffffffffffffffffffffffff1681526020019081526020015f206002015f9054906101000a900460ff161561129e576040517f08c379a000000000000000000000000000000000000000000000000000000000815260040161129590612530565b60405180910390fd5b5f5f9054906101000a900473ffffffffffffffffffffffffffffffffffffffff1673ffffffffffffffffffffffffffffffffffffffff163373ffffffffffffffffffffffffffffffffffffffff160361132c576040517f08c379a0000000000000000000000000000000000000000000000000000000008152600401611323906125be565b60405180910390fd5b600a54600b5461133c9190611c14565b421061137d576040517f08c379a00000000000000000000000000000000000000000000000000000000081526004016113749061264c565b60405180910390fd5b60045f3373ffffffffffffffffffffffffffffffffffffffff1673ffffffffffffffffffffffffffffffffffffffff1681526020019081526020015f205f9054906101000a900460ff1615611407576040517f08c379a00000000000000000000000000000000000000000000000000000000081526004016113fe906126b4565b60405180910390fd5b60405180606001604052808281526020015f81526020016001151581525060035f3373ffffffffffffffffffffffffffffffffffffffff1673ffffffffffffffffffffffffffffffffffffffff1681526020019081526020015f205f820151815f0190816114759190611f20565b50602082015181600101556040820151816002015f6101000a81548160ff021916908315150217905550905050600133908060018154018082558091505060019003905f5260205f20015f9091909190916101000a81548173ffffffffffffffffffffffffffffffffffffffff021916908373ffffffffffffffffffffffffffffffffffffffff160217905550600160045f3373ffffffffffffffffffffffffffffffffffffffff1673ffffffffffffffffffffffffffffffffffffffff1681526020019081526020015f205f6101000a81548160ff0219169083151502179055503373ffffffffffffffffffffffffffffffffffffffff167f50b809835e6c4f84b4a16b99dc7b24f6b036bb71bd4b2896da99d262fe192a718260405161159d9190611797565b60405180910390a260065442106115db577f1d56eb50d6cb8f56779087cdd27e455174f91c77f1b8d0ad9e74b77e983060ef60405160405180910390a15b50565b5f5f9054906101000a900473ffffffffffffffffffffffffffffffffffffffff1681565b5080545f8255905f5260205f209081019061161d9190611620565b50565b5b8082111561163f575f81816116369190611643565b50600101611621565b5090565b50805461164f90611d50565b5f825580601f10611660575061167d565b601f0160209004905f5260205f209081019061167c9190611680565b5b50565b5b80821115611697575f815f905550600101611681565b5090565b7f4e487b71000000000000000000000000000000000000000000000000000000005f52602160045260245ffd5b600581106116d9576116d861169b565b5b50565b5f8190506116e9826116c8565b919050565b5f6116f8826116dc565b9050919050565b611708816116ee565b82525050565b5f6020820190506117215f8301846116ff565b92915050565b5f81519050919050565b5f82825260208201905092915050565b8281835e5f83830152505050565b5f601f19601f8301169050919050565b5f61176982611727565b6117738185611731565b9350611783818560208601611741565b61178c8161174f565b840191505092915050565b5f6020820190508181035f8301526117af818461175f565b905092915050565b5f81519050919050565b5f82825260208201905092915050565b5f819050602082019050919050565b5f82825260208201905092915050565b5f6117fa82611727565b61180481856117e0565b9350611814818560208601611741565b61181d8161174f565b840191505092915050565b5f61183383836117f0565b905092915050565b5f602082019050919050565b5f611851826117b7565b61185b81856117c1565b93508360208202850161186d856117d1565b805f5b858110156118a857848403895281516118898582611828565b94506118948361183b565b925060208a01995050600181019050611870565b50829750879550505050505092915050565b5f6020820190508181035f8301526118d28184611847565b905092915050565b5f604051905090565b5f5ffd5b5f5ffd5b5f73ffffffffffffffffffffffffffffffffffffffff82169050919050565b5f611914826118eb565b9050919050565b6119248161190a565b811461192e575f5ffd5b50565b5f8135905061193f8161191b565b92915050565b5f6020828403121561195a576119596118e3565b5b5f61196784828501611931565b91505092915050565b5f819050919050565b61198281611970565b811461198c575f5ffd5b50565b5f8135905061199d81611979565b92915050565b5f602082840312156119b8576119b76118e3565b5b5f6119c58482850161198f565b91505092915050565b6119d78161190a565b82525050565b5f6020820190506119f05f8301846119ce565b92915050565b6119ff81611970565b82525050565b5f8115159050919050565b611a1981611a05565b82525050565b5f6060820190508181035f830152611a37818661175f565b9050611a4660208301856119f6565b611a536040830184611a10565b949350505050565b5f602082019050611a6e5f830184611a10565b92915050565b5f5ffd5b5f5ffd5b7f4e487b71000000000000000000000000000000000000000000000000000000005f52604160045260245ffd5b611ab28261174f565b810181811067ffffffffffffffff82111715611ad157611ad0611a7c565b5b80604052505050565b5f611ae36118da565b9050611aef8282611aa9565b919050565b5f67ffffffffffffffff821115611b0e57611b0d611a7c565b5b611b178261174f565b9050602081019050919050565b828183375f83830152505050565b5f611b44611b3f84611af4565b611ada565b905082815260208101848484011115611b6057611b5f611a78565b5b611b6b848285611b24565b509392505050565b5f82601f830112611b8757611b86611a74565b5b8135611b97848260208601611b32565b91505092915050565b5f60208284031215611bb557611bb46118e3565b5b5f82013567ffffffffffffffff811115611bd257611bd16118e7565b5b611bde84828501611b73565b91505092915050565b7f4e487b71000000000000000000000000000000000000000000000000000000005f52601160045260245ffd5b5f611c1e82611970565b9150611c2983611970565b9250828201905080821115611c4157611c40611be7565b5b92915050565b7f566f74696e67206973207374696c6c20676f696e67206f6e00000000000000005f82015250565b5f611c7b601883611731565b9150611c8682611c47565b602082019050919050565b5f6020820190508181035f830152611ca881611c6f565b9050919050565b7f4e487b71000000000000000000000000000000000000000000000000000000005f52603260045260245ffd5b5f611ce682611970565b91507fffffffffffffffffffffffffffffffffffffffffffffffffffffffffffffffff8203611d1857611d17611be7565b5b600182019050919050565b7f4e487b71000000000000000000000000000000000000000000000000000000005f52602260045260245ffd5b5f6002820490506001821680611d6757607f821691505b602082108103611d7a57611d79611d23565b5b50919050565b5f819050815f5260205f209050919050565b5f6020601f8301049050919050565b5f82821b905092915050565b5f60088302611ddc7fffffffffffffffffffffffffffffffffffffffffffffffffffffffffffffffff82611da1565b611de68683611da1565b95508019841693508086168417925050509392505050565b5f819050919050565b5f611e21611e1c611e1784611970565b611dfe565b611970565b9050919050565b5f819050919050565b611e3a83611e07565b611e4e611e4682611e28565b848454611dad565b825550505050565b5f5f905090565b611e65611e56565b611e70818484611e31565b505050565b5b81811015611e9357611e885f82611e5d565b600181019050611e76565b5050565b601f821115611ed857611ea981611d80565b611eb284611d92565b81016020851015611ec1578190505b611ed5611ecd85611d92565b830182611e75565b50505b505050565b5f82821c905092915050565b5f611ef85f1984600802611edd565b1980831691505092915050565b5f611f108383611ee9565b9150826002028217905092915050565b611f2982611727565b67ffffffffffffffff811115611f4257611f41611a7c565b5b611f4c8254611d50565b611f57828285611e97565b5f60209050601f831160018114611f88575f8415611f76578287015190505b611f808582611f05565b865550611fe7565b601f198416611f9686611d80565b5f5b82811015611fbd57848901518255600182019150602085019450602081019050611f98565b86831015611fda5784890151611fd6601f891682611ee9565b8355505b6001600288020188555050505b505050505050565b5f81549050611ffd81611d50565b9050919050565b5f819050815f5260205f209050919050565b8181036120245750506120f9565b61202d82611fef565b67ffffffffffffffff81111561204657612045611a7c565b5b6120508254611d50565b61205b828285611e97565b5f601f831160018114612088575f8415612076578287015490505b6120808582611f05565b8655506120f2565b601f19841661209687612004565b96506120a186611d80565b5f5b828110156120c8578489015482556001820191506001850194506020810190506120a3565b868310156120e557848901546120e1601f891682611ee9565b8355505b6001600288020188555050505b5050505050505b565b5f815461210781611d50565b6121118186611731565b9450600182165f811461212b576001811461214157612173565b60ff198316865281151560200286019350612173565b61214a85611d80565b5f5b8381101561216b5781548189015260018201915060208101905061214c565b808801955050505b50505092915050565b5f6020820190508181035f83015261219481846120fb565b905092915050565b7f596f7520617265206e6f742061207265676973746572656420766f7465722e005f82015250565b5f6121d0601f83611731565b91506121db8261219c565b602082019050919050565b5f6020820190508181035f8301526121fd816121c4565b9050919050565b7f596f75206861766520616c72656164792063617374656420796f757220766f745f8201527f6500000000000000000000000000000000000000000000000000000000000000602082015250565b5f61225e602183611731565b915061226982612204565b604082019050919050565b5f6020820190508181035f83015261228b81612252565b9050919050565b7f766f74696e6720706861736520697320636f6d706c65746564210000000000005f82015250565b5f6122c6601a83611731565b91506122d182612292565b602082019050919050565b5f6020820190508181035f8301526122f3816122ba565b9050919050565b7f5468652063616e64696461746520796f752061726520747279696e6720746f205f8201527f766f7465206973206e6f7420726567697374657265642063616e646964617465602082015250565b5f612354604083611731565b915061235f826122fa565b604082019050919050565b5f6020820190508181035f83015261238181612348565b9050919050565b7f41646d696e2063616e6e6f74206265206120766f7465722100000000000000005f82015250565b5f6123bc601883611731565b91506123c782612388565b602082019050919050565b5f6020820190508181035f8301526123e9816123b0565b9050919050565b7f566f7465727320726567697374726174696f6e2070686173652068617320656e5f8201527f6465642e00000000000000000000000000000000000000000000000000000000602082015250565b5f61244a602483611731565b9150612455826123f0565b604082019050919050565b5f6020820190508181035f8301526124778161243e565b9050919050565b7f566f74657220697320616c7265616479207265676973746572656400000000005f82015250565b5f6124b2601b83611731565b91506124bd8261247e565b602082019050919050565b5f6020820190508181035f8301526124df816124a6565b9050919050565b7f416c726561647920726567697374657265642061732063616e6469646174652e5f82015250565b5f61251a602083611731565b9150612525826124e6565b602082019050919050565b5f6020820190508181035f8301526125478161250e565b9050919050565b7f41646d696e2063616e6e6f7420726567697374657220617320612063616e64695f8201527f6461746521000000000000000000000000000000000000000000000000000000602082015250565b5f6125a8602583611731565b91506125b38261254e565b604082019050919050565b5f6020820190508181035f8301526125d58161259c565b9050919050565b7f43616e64696461746520726567697374726174696f6e2068617320656e6465645f8201527f2e00000000000000000000000000000000000000000000000000000000000000602082015250565b5f612636602183611731565b9150612641826125dc565b604082019050919050565b5f6020820190508181035f8301526126638161262a565b9050919050565b7f43616e64696461746520697320616c72656164792072656769737465726564005f82015250565b5f61269e601f83611731565b91506126a98261266a565b602082019050919050565b5f6020820190508181035f8301526126cb81612692565b905091905056fea26469706673582212204832ca52b008dc9b6b248eb399e5f4595523d076f0fb325bb3ab167b9b4c937464736f6c634300081c0033",
    "linkReferences": {},
    "deployedLinkReferences": {},
    "immutableReferences": {},
    "inputSourceName": "project/contracts/e-voting.sol",
    "buildInfoId": "solc-0_8_28-05d64655ea922d05f786af08f48853c3894b916b"
}