{
  "_format": "hh3-artifact-1",
  "contractName": "Voting",
  "sourceName": "contracts/Voting.sol",
  "abi": [
    {
      "inputs": [
        {
          "internalType": "address",
          "name": "_voteToken",
          "type": "address"
        }
      ],
      "stateMutability": "nonpayable",
      "type": "constructor"
    },
    {
      "anonymous": false,
      "inputs": [
        {
          "indexed": true,
          "internalType": "address",
          "name": "candidate",
          "type": "address"
        },
        {
          "indexed": false,
          "internalType": "string",
          "name": "name",
          "type": "string"
        }
      ],
      "name": "CandidateRegistered",
      "type": "event"
    },
    {
      "anonymous": false,
      "inputs": [
        {
          "indexed": false,
          "internalType": "enum Voting.electionPhase",
          "name": "preious",
          "type": "uint8"
        },
        {
          "indexed": false,
          "internalType": "enum Voting.electionPhase",
          "name": "current",
          "type": "uint8"
        }
      ],
      "name": "PhaseChanged",
      "type": "event"
    },
    {
      "anonymous": false,
      "inputs": [
        {
          "indexed": true,
          "internalType": "address",
          "name": "voter",
          "type": "address"
        },
        {
          "indexed": false,
          "internalType": "address",
          "name": "candidate",
          "type": "address"
        }
      ],
      "name": "VoteCast",
      "type": "event"
    },
    {
      "anonymous": false,
      "inputs": [
        {
          "indexed": true,
          "internalType": "address",
          "name": "voter",
          "type": "address"
        }
      ],
      "name": "VoterRegistered",
      "type": "event"
    },
    {
      "inputs": [],
      "name": "admin",
      "outputs": [
        {
          "internalType": "address",
          "name": "",
          "type": "address"
        }
      ],
      "stateMutability": "view",
      "type": "function"
    },
    {
      "inputs": [
        {
          "internalType": "address",
          "name": "",
          "type": "address"
        }
      ],
      "name": "candidateIndex",
      "outputs": [
        {
          "internalType": "uint256",
          "name": "",
          "type": "uint256"
        }
      ],
      "stateMutability": "view",
      "type": "function"
    },
    {
      "inputs": [
        {
          "internalType": "uint256",
          "name": "",
          "type": "uint256"
        }
      ],
      "name": "candidates",
      "outputs": [
        {
          "internalType": "string",
          "name": "name",
          "type": "string"
        },
        {
          "internalType": "uint256",
          "name": "voteCount",
          "type": "uint256"
        }
      ],
      "stateMutability": "view",
      "type": "function"
    },
    {
      "inputs": [
        {
          "internalType": "enum Voting.electionPhase",
          "name": "phase",
          "type": "uint8"
        }
      ],
      "name": "changePhase",
      "outputs": [],
      "stateMutability": "nonpayable",
      "type": "function"
    },
    {
      "inputs": [],
      "name": "currentPhase",
      "outputs": [
        {
          "internalType": "enum Voting.electionPhase",
          "name": "",
          "type": "uint8"
        }
      ],
      "stateMutability": "view",
      "type": "function"
    },
    {
      "inputs": [],
      "name": "declareWinner",
      "outputs": [
        {
          "internalType": "string",
          "name": "winner",
          "type": "string"
        }
      ],
      "stateMutability": "view",
      "type": "function"
    },
    {
      "inputs": [
        {
          "internalType": "address",
          "name": "_candidate",
          "type": "address"
        }
      ],
      "name": "getCandidateVotes",
      "outputs": [
        {
          "internalType": "uint256",
          "name": "",
          "type": "uint256"
        }
      ],
      "stateMutability": "view",
      "type": "function"
    },
    {
      "inputs": [
        {
          "internalType": "address",
          "name": "",
          "type": "address"
        }
      ],
      "name": "hasVoted",
      "outputs": [
        {
          "internalType": "bool",
          "name": "",
          "type": "bool"
        }
      ],
      "stateMutability": "view",
      "type": "function"
    },
    {
      "inputs": [
        {
          "internalType": "address",
          "name": "",
          "type": "address"
        }
      ],
      "name": "isVoter",
      "outputs": [
        {
          "internalType": "bool",
          "name": "",
          "type": "bool"
        }
      ],
      "stateMutability": "view",
      "type": "function"
    },
    {
      "inputs": [
        {
          "internalType": "address",
          "name": "",
          "type": "address"
        }
      ],
      "name": "iscandidate",
      "outputs": [
        {
          "internalType": "bool",
          "name": "",
          "type": "bool"
        }
      ],
      "stateMutability": "view",
      "type": "function"
    },
    {
      "inputs": [
        {
          "internalType": "address",
          "name": "_candidate",
          "type": "address"
        },
        {
          "internalType": "string",
          "name": "_name",
          "type": "string"
        }
      ],
      "name": "registerCandidate",
      "outputs": [],
      "stateMutability": "nonpayable",
      "type": "function"
    },
    {
      "inputs": [
        {
          "internalType": "address",
          "name": "_voter",
          "type": "address"
        }
      ],
      "name": "registerVoter",
      "outputs": [],
      "stateMutability": "nonpayable",
      "type": "function"
    },
    {
      "inputs": [
        {
          "internalType": "address",
          "name": "_candidate",
          "type": "address"
        }
      ],
      "name": "vote",
      "outputs": [],
      "stateMutability": "nonpayable",
      "type": "function"
    }
  ],
  "bytecode": "0x608060405234801561000f575f5ffd5b5060405161204a38038061204a8339818101604052810190610031919061013d565b335f5f6101000a81548173ffffffffffffffffffffffffffffffffffffffff021916908373ffffffffffffffffffffffffffffffffffffffff1602179055508060015f6101000a81548173ffffffffffffffffffffffffffffffffffffffff021916908373ffffffffffffffffffffffffffffffffffffffff1602179055505f5f60146101000a81548160ff021916908360028111156100d4576100d3610168565b5b021790555050610195565b5f5ffd5b5f73ffffffffffffffffffffffffffffffffffffffff82169050919050565b5f61010c826100e3565b9050919050565b61011c81610102565b8114610126575f5ffd5b50565b5f8151905061013781610113565b92915050565b5f60208284031215610152576101516100df565b5b5f61015f84828501610129565b91505092915050565b7f4e487b71000000000000000000000000000000000000000000000000000000005f52602160045260245ffd5b611ea8806101a25f395ff3fe608060405234801561000f575f5ffd5b50600436106100cd575f3560e01c806338db6dd31161008a578063b0d30d2f11610064578063b0d30d2f14610222578063b12e1cfc1461023e578063d82f25f01461026e578063f851a4401461029e576100cd565b806338db6dd3146101ba5780636dd7d8ea146101d6578063a7771ee3146101f2576100cd565b8063055ad42e146100d15780630721c297146100ef57806309eef43e1461010b57806314034bd21461013b57806322735da8146101595780633477ee2e14610189575b5f5ffd5b6100d96102bc565b6040516100e6919061126e565b60405180910390f35b610109600480360381019061010491906112bb565b6102ce565b005b61012560048036038101906101209190611340565b610443565b6040516101329190611385565b60405180910390f35b610143610460565b604051610150919061140e565b60405180910390f35b610173600480360381019061016e9190611340565b61069e565b6040516101809190611446565b60405180910390f35b6101a3600480360381019061019e9190611489565b6106b3565b6040516101b19291906114b4565b60405180910390f35b6101d460048036038101906101cf9190611340565b610768565b005b6101f060048036038101906101eb9190611340565b610a18565b005b61020c60048036038101906102079190611340565b610e5b565b6040516102199190611385565b60405180910390f35b61023c6004803603810190610237919061160e565b610e78565b005b61025860048036038101906102539190611340565b611151565b6040516102659190611385565b60405180910390f35b61028860048036038101906102839190611340565b61116e565b6040516102959190611446565b60405180910390f35b6102a66111d7565b6040516102b39190611677565b60405180910390f35b5f60149054906101000a900460ff1681565b3373ffffffffffffffffffffffffffffffffffffffff165f5f9054906101000a900473ffffffffffffffffffffffffffffffffffffffff1673ffffffffffffffffffffffffffffffffffffffff161461035c576040517f08c379a0000000000000000000000000000000000000000000000000000000008152600401610353906116da565b60405180910390fd5b5f60149054906101000a900460ff16600281111561037d5761037c6111fb565b5b8160028111156103905761038f6111fb565b5b036103d0576040517f08c379a00000000000000000000000000000000000000000000000000000000081526004016103c790611768565b60405180910390fd5b7feeb345fea22465c927333e05d324ee5b476597701d8be7e5d9aacc60e7aefbaf5f60149054906101000a900460ff168260405161040f929190611786565b60405180910390a1805f60146101000a81548160ff0219169083600281111561043b5761043a6111fb565b5b021790555050565b6006602052805f5260405f205f915054906101000a900460ff1681565b60603373ffffffffffffffffffffffffffffffffffffffff165f5f9054906101000a900473ffffffffffffffffffffffffffffffffffffffff1673ffffffffffffffffffffffffffffffffffffffff16146104f0576040517f08c379a00000000000000000000000000000000000000000000000000000000081526004016104e7906116da565b60405180910390fd5b6002806002811115610505576105046111fb565b5b5f60149054906101000a900460ff166002811115610526576105256111fb565b5b14610566576040517f08c379a000000000000000000000000000000000000000000000000000000000815260040161055d906117f7565b60405180910390fd5b5f5f90505f5f90505b6002805490508160ff161015610698578160028260ff168154811061059757610596611815565b5b905f5260205f2090600202016001015411156106855760028160ff16815481106105c4576105c3611815565b5b905f5260205f20906002020160010154915060028160ff16815481106105ed576105ec611815565b5b905f5260205f2090600202015f0180546106069061186f565b80601f01602080910402602001604051908101604052809291908181526020018280546106329061186f565b801561067d5780601f106106545761010080835404028352916020019161067d565b820191905f5260205f20905b81548152906001019060200180831161066057829003601f168201915b505050505093505b8080610690906118d8565b91505061056f565b50505090565b6003602052805f5260405f205f915090505481565b600281815481106106c2575f80fd5b905f5260205f2090600202015f91509050805f0180546106e19061186f565b80601f016020809104026020016040519081016040528092919081815260200182805461070d9061186f565b80156107585780601f1061072f57610100808354040283529160200191610758565b820191905f5260205f20905b81548152906001019060200180831161073b57829003601f168201915b5050505050908060010154905082565b3373ffffffffffffffffffffffffffffffffffffffff165f5f9054906101000a900473ffffffffffffffffffffffffffffffffffffffff1673ffffffffffffffffffffffffffffffffffffffff16146107f6576040517f08c379a00000000000000000000000000000000000000000000000000000000081526004016107ed906116da565b60405180910390fd5b5f80600281111561080a576108096111fb565b5b5f60149054906101000a900460ff16600281111561082b5761082a6111fb565b5b1461086b576040517f08c379a0000000000000000000000000000000000000000000000000000000008152600401610862906117f7565b60405180910390fd5b60045f8373ffffffffffffffffffffffffffffffffffffffff1673ffffffffffffffffffffffffffffffffffffffff1681526020019081526020015f205f9054906101000a900460ff16156108f5576040517f08c379a00000000000000000000000000000000000000000000000000000000081526004016108ec9061194a565b60405180910390fd5b600160045f8473ffffffffffffffffffffffffffffffffffffffff1673ffffffffffffffffffffffffffffffffffffffff1681526020019081526020015f205f6101000a81548160ff02191690831515021790555060015f9054906101000a900473ffffffffffffffffffffffffffffffffffffffff1673ffffffffffffffffffffffffffffffffffffffff16636a627842836040518263ffffffff1660e01b81526004016109a49190611677565b5f604051808303815f87803b1580156109bb575f5ffd5b505af11580156109cd573d5f5f3e3d5ffd5b505050508173ffffffffffffffffffffffffffffffffffffffff167fb6be2187d059cc2a55fe29e0e503b566e1e0f8c8780096e185429350acffd3dd60405160405180910390a25050565b6001806002811115610a2d57610a2c6111fb565b5b5f60149054906101000a900460ff166002811115610a4e57610a4d6111fb565b5b14610a8e576040517f08c379a0000000000000000000000000000000000000000000000000000000008152600401610a85906117f7565b60405180910390fd5b60045f3373ffffffffffffffffffffffffffffffffffffffff1673ffffffffffffffffffffffffffffffffffffffff1681526020019081526020015f205f9054906101000a900460ff16610b17576040517f08c379a0000000000000000000000000000000000000000000000000000000008152600401610b0e906119d8565b60405180910390fd5b60065f3373ffffffffffffffffffffffffffffffffffffffff1673ffffffffffffffffffffffffffffffffffffffff1681526020019081526020015f205f9054906101000a900460ff1615610ba1576040517f08c379a0000000000000000000000000000000000000000000000000000000008152600401610b9890611a40565b60405180910390fd5b60055f8373ffffffffffffffffffffffffffffffffffffffff1673ffffffffffffffffffffffffffffffffffffffff1681526020019081526020015f205f9054906101000a900460ff16610c2a576040517f08c379a0000000000000000000000000000000000000000000000000000000008152600401610c2190611aa8565b60405180910390fd5b5f5f9054906101000a900473ffffffffffffffffffffffffffffffffffffffff1673ffffffffffffffffffffffffffffffffffffffff163373ffffffffffffffffffffffffffffffffffffffff1603610cb8576040517f08c379a0000000000000000000000000000000000000000000000000000000008152600401610caf90611b36565b60405180910390fd5b600260035f8473ffffffffffffffffffffffffffffffffffffffff1673ffffffffffffffffffffffffffffffffffffffff1681526020019081526020015f205481548110610d0957610d08611815565b5b905f5260205f2090600202016001015f815480929190610d2890611b54565b919050555060015f9054906101000a900473ffffffffffffffffffffffffffffffffffffffff1673ffffffffffffffffffffffffffffffffffffffff166389afcb44336040518263ffffffff1660e01b8152600401610d879190611677565b5f604051808303815f87803b158015610d9e575f5ffd5b505af1158015610db0573d5f5f3e3d5ffd5b50505050600160065f3373ffffffffffffffffffffffffffffffffffffffff1673ffffffffffffffffffffffffffffffffffffffff1681526020019081526020015f205f6101000a81548160ff0219169083151502179055503373ffffffffffffffffffffffffffffffffffffffff167f113ed09b18bb8fe2635af16f21d67464502d920ff1015abfe08dbe9a2971a7e283604051610e4f9190611677565b60405180910390a25050565b6004602052805f5260405f205f915054906101000a900460ff1681565b3373ffffffffffffffffffffffffffffffffffffffff165f5f9054906101000a900473ffffffffffffffffffffffffffffffffffffffff1673ffffffffffffffffffffffffffffffffffffffff1614610f06576040517f08c379a0000000000000000000000000000000000000000000000000000000008152600401610efd906116da565b60405180910390fd5b5f806002811115610f1a57610f196111fb565b5b5f60149054906101000a900460ff166002811115610f3b57610f3a6111fb565b5b14610f7b576040517f08c379a0000000000000000000000000000000000000000000000000000000008152600401610f72906117f7565b60405180910390fd5b60055f8473ffffffffffffffffffffffffffffffffffffffff1673ffffffffffffffffffffffffffffffffffffffff1681526020019081526020015f205f9054906101000a900460ff1615611005576040517f08c379a0000000000000000000000000000000000000000000000000000000008152600401610ffc90611be5565b60405180910390fd5b600260405180604001604052808481526020015f815250908060018154018082558091505060019003905f5260205f2090600202015f909190919091505f820151815f0190816110559190611da3565b5060208201518160010155505060028054905060035f8573ffffffffffffffffffffffffffffffffffffffff1673ffffffffffffffffffffffffffffffffffffffff1681526020019081526020015f2081905550600160055f8573ffffffffffffffffffffffffffffffffffffffff1673ffffffffffffffffffffffffffffffffffffffff1681526020019081526020015f205f6101000a81548160ff0219169083151502179055508273ffffffffffffffffffffffffffffffffffffffff167ff7d573e0e0f72259d79708ef22494ecdc00dd3605de228ff1a79063d7547b7c283604051611144919061140e565b60405180910390a2505050565b6005602052805f5260405f205f915054906101000a900460ff1681565b5f600260035f8473ffffffffffffffffffffffffffffffffffffffff1673ffffffffffffffffffffffffffffffffffffffff1681526020019081526020015f2054815481106111c0576111bf611815565b5b905f5260205f209060020201600101549050919050565b5f5f9054906101000a900473ffffffffffffffffffffffffffffffffffffffff1681565b7f4e487b71000000000000000000000000000000000000000000000000000000005f52602160045260245ffd5b60038110611239576112386111fb565b5b50565b5f81905061124982611228565b919050565b5f6112588261123c565b9050919050565b6112688161124e565b82525050565b5f6020820190506112815f83018461125f565b92915050565b5f604051905090565b5f5ffd5b5f5ffd5b600381106112a4575f5ffd5b50565b5f813590506112b581611298565b92915050565b5f602082840312156112d0576112cf611290565b5b5f6112dd848285016112a7565b91505092915050565b5f73ffffffffffffffffffffffffffffffffffffffff82169050919050565b5f61130f826112e6565b9050919050565b61131f81611305565b8114611329575f5ffd5b50565b5f8135905061133a81611316565b92915050565b5f6020828403121561135557611354611290565b5b5f6113628482850161132c565b91505092915050565b5f8115159050919050565b61137f8161136b565b82525050565b5f6020820190506113985f830184611376565b92915050565b5f81519050919050565b5f82825260208201905092915050565b8281835e5f83830152505050565b5f601f19601f8301169050919050565b5f6113e08261139e565b6113ea81856113a8565b93506113fa8185602086016113b8565b611403816113c6565b840191505092915050565b5f6020820190508181035f83015261142681846113d6565b905092915050565b5f819050919050565b6114408161142e565b82525050565b5f6020820190506114595f830184611437565b92915050565b6114688161142e565b8114611472575f5ffd5b50565b5f813590506114838161145f565b92915050565b5f6020828403121561149e5761149d611290565b5b5f6114ab84828501611475565b91505092915050565b5f6040820190508181035f8301526114cc81856113d6565b90506114db6020830184611437565b9392505050565b5f5ffd5b5f5ffd5b7f4e487b71000000000000000000000000000000000000000000000000000000005f52604160045260245ffd5b611520826113c6565b810181811067ffffffffffffffff8211171561153f5761153e6114ea565b5b80604052505050565b5f611551611287565b905061155d8282611517565b919050565b5f67ffffffffffffffff82111561157c5761157b6114ea565b5b611585826113c6565b9050602081019050919050565b828183375f83830152505050565b5f6115b26115ad84611562565b611548565b9050828152602081018484840111156115ce576115cd6114e6565b5b6115d9848285611592565b509392505050565b5f82601f8301126115f5576115f46114e2565b5b81356116058482602086016115a0565b91505092915050565b5f5f6040838503121561162457611623611290565b5b5f6116318582860161132c565b925050602083013567ffffffffffffffff81111561165257611651611294565b5b61165e858286016115e1565b9150509250929050565b61167181611305565b82525050565b5f60208201905061168a5f830184611668565b92915050565b7f4f6e6c792061646d696e2063616c6c20746869732066756e6374696f6e0000005f82015250565b5f6116c4601d836113a8565b91506116cf82611690565b602082019050919050565b5f6020820190508181035f8301526116f1816116b8565b9050919050565b7f416c726561647920696e2074686973207068617365206f6620656c656374696f5f8201527f6e00000000000000000000000000000000000000000000000000000000000000602082015250565b5f6117526021836113a8565b915061175d826116f8565b604082019050919050565b5f6020820190508181035f83015261177f81611746565b9050919050565b5f6040820190506117995f83018561125f565b6117a6602083018461125f565b9392505050565b7f57726f6e6720656c656374696f6e2070686173650000000000000000000000005f82015250565b5f6117e16014836113a8565b91506117ec826117ad565b602082019050919050565b5f6020820190508181035f83015261180e816117d5565b9050919050565b7f4e487b71000000000000000000000000000000000000000000000000000000005f52603260045260245ffd5b7f4e487b71000000000000000000000000000000000000000000000000000000005f52602260045260245ffd5b5f600282049050600182168061188657607f821691505b60208210810361189957611898611842565b5b50919050565b7f4e487b71000000000000000000000000000000000000000000000000000000005f52601160045260245ffd5b5f60ff82169050919050565b5f6118e2826118cc565b915060ff82036118f5576118f461189f565b5b600182019050919050565b7f566f74657220616c7265616479207265676973746572656400000000000000005f82015250565b5f6119346018836113a8565b915061193f82611900565b602082019050919050565b5f6020820190508181035f83015261196181611928565b9050919050565b7f596f7520617265206e6f74207265676973746572656420666f7220766f74696e5f8201527f6721000000000000000000000000000000000000000000000000000000000000602082015250565b5f6119c26022836113a8565b91506119cd82611968565b604082019050919050565b5f6020820190508181035f8301526119ef816119b6565b9050919050565b7f596f752063616e20766f7465206f6e6c79206f6e6365210000000000000000005f82015250565b5f611a2a6017836113a8565b9150611a35826119f6565b602082019050919050565b5f6020820190508181035f830152611a5781611a1e565b9050919050565b7f4e6f74206120726567697374657265642063616e6469646174652100000000005f82015250565b5f611a92601b836113a8565b9150611a9d82611a5e565b602082019050919050565b5f6020820190508181035f830152611abf81611a86565b9050919050565b7f41646d696e206f662074686520636f6e74726163742063616e6e6f7420766f745f8201527f6521000000000000000000000000000000000000000000000000000000000000602082015250565b5f611b206022836113a8565b9150611b2b82611ac6565b604082019050919050565b5f6020820190508181035f830152611b4d81611b14565b9050919050565b5f611b5e8261142e565b91507fffffffffffffffffffffffffffffffffffffffffffffffffffffffffffffffff8203611b9057611b8f61189f565b5b600182019050919050565b7f43616e64696461746520616c72656164792072656769737465726564000000005f82015250565b5f611bcf601c836113a8565b9150611bda82611b9b565b602082019050919050565b5f6020820190508181035f830152611bfc81611bc3565b9050919050565b5f819050815f5260205f209050919050565b5f6020601f8301049050919050565b5f82821b905092915050565b5f60088302611c5f7fffffffffffffffffffffffffffffffffffffffffffffffffffffffffffffffff82611c24565b611c698683611c24565b95508019841693508086168417925050509392505050565b5f819050919050565b5f611ca4611c9f611c9a8461142e565b611c81565b61142e565b9050919050565b5f819050919050565b611cbd83611c8a565b611cd1611cc982611cab565b848454611c30565b825550505050565b5f5f905090565b611ce8611cd9565b611cf3818484611cb4565b505050565b5b81811015611d1657611d0b5f82611ce0565b600181019050611cf9565b5050565b601f821115611d5b57611d2c81611c03565b611d3584611c15565b81016020851015611d44578190505b611d58611d5085611c15565b830182611cf8565b50505b505050565b5f82821c905092915050565b5f611d7b5f1984600802611d60565b1980831691505092915050565b5f611d938383611d6c565b9150826002028217905092915050565b611dac8261139e565b67ffffffffffffffff811115611dc557611dc46114ea565b5b611dcf825461186f565b611dda828285611d1a565b5f60209050601f831160018114611e0b575f8415611df9578287015190505b611e038582611d88565b865550611e6a565b601f198416611e1986611c03565b5f5b82811015611e4057848901518255600182019150602085019450602081019050611e1b565b86831015611e5d5784890151611e59601f891682611d6c565b8355505b6001600288020188555050505b50505050505056fea2646970667358221220f35c57ef51b13eda4a2ab4cf012599241ea59a802ac7390f9ffea69319c09e9964736f6c634300081c0033",
  "linkReferences": {},
  "deployedLinkReferences": {},
  "immutableReferences": {},
  "inputSourceName": "project/contracts/Voting.sol",
  "buildInfoId": "solc-0_8_28-fbd1bf31b2229f65fa26c19e6a6f0bc651883874"
}