{
  "_format": "hh3-artifact-1",
  "contractName": "VotingContract",
  "sourceName": "contracts/votingContract.sol",
  "abi": [
    {
      "inputs": [],
      "stateMutability": "nonpayable",
      "type": "constructor"
    },
    {
      "anonymous": false,
      "inputs": [
        {
          "indexed": true,
          "internalType": "uint256",
          "name": "candidateId",
          "type": "uint256"
        },
        {
          "indexed": false,
          "internalType": "string",
          "name": "name",
          "type": "string"
        }
      ],
      "name": "CandidateRegistered",
      "type": "event"
    },
    {
      "anonymous": false,
      "inputs": [
        {
          "indexed": false,
          "internalType": "enum VotingContract.ElectionPhase",
          "name": "previous",
          "type": "uint8"
        },
        {
          "indexed": false,
          "internalType": "enum VotingContract.ElectionPhase",
          "name": "current",
          "type": "uint8"
        }
      ],
      "name": "PhaseChanged",
      "type": "event"
    },
    {
      "anonymous": false,
      "inputs": [
        {
          "indexed": true,
          "internalType": "address",
          "name": "voter",
          "type": "address"
        },
        {
          "indexed": false,
          "internalType": "uint256",
          "name": "candidateId",
          "type": "uint256"
        }
      ],
      "name": "VoteCast",
      "type": "event"
    },
    {
      "anonymous": false,
      "inputs": [
        {
          "indexed": true,
          "internalType": "address",
          "name": "voter",
          "type": "address"
        }
      ],
      "name": "VoterApproved",
      "type": "event"
    },
    {
      "inputs": [],
      "name": "admin",
      "outputs": [
        {
          "internalType": "address",
          "name": "",
          "type": "address"
        }
      ],
      "stateMutability": "view",
      "type": "function"
    },
    {
      "inputs": [
        {
          "internalType": "address",
          "name": "_voter",
          "type": "address"
        }
      ],
      "name": "approveVoter",
      "outputs": [],
      "stateMutability": "nonpayable",
      "type": "function"
    },
    {
      "inputs": [
        {
          "internalType": "address",
          "name": "",
          "type": "address"
        }
      ],
      "name": "approvedVoters",
      "outputs": [
        {
          "internalType": "bool",
          "name": "",
          "type": "bool"
        }
      ],
      "stateMutability": "view",
      "type": "function"
    },
    {
      "inputs": [
        {
          "internalType": "uint256",
          "name": "",
          "type": "uint256"
        }
      ],
      "name": "candidates",
      "outputs": [
        {
          "internalType": "string",
          "name": "name",
          "type": "string"
        },
        {
          "internalType": "uint256",
          "name": "voteCount",
          "type": "uint256"
        },
        {
          "internalType": "address",
          "name": "candidateAddress",
          "type": "address"
        }
      ],
      "stateMutability": "view",
      "type": "function"
    },
    {
      "inputs": [
        {
          "internalType": "enum VotingContract.ElectionPhase",
          "name": "phase",
          "type": "uint8"
        }
      ],
      "name": "changePhase",
      "outputs": [],
      "stateMutability": "nonpayable",
      "type": "function"
    },
    {
      "inputs": [],
      "name": "currentPhase",
      "outputs": [
        {
          "internalType": "enum VotingContract.ElectionPhase",
          "name": "",
          "type": "uint8"
        }
      ],
      "stateMutability": "view",
      "type": "function"
    },
    {
      "inputs": [],
      "name": "declareWinner",
      "outputs": [
        {
          "internalType": "string",
          "name": "winner",
          "type": "string"
        }
      ],
      "stateMutability": "view",
      "type": "function"
    },
    {
      "inputs": [],
      "name": "getCandidates",
      "outputs": [
        {
          "components": [
            {
              "internalType": "string",
              "name": "name",
              "type": "string"
            },
            {
              "internalType": "uint256",
              "name": "voteCount",
              "type": "uint256"
            },
            {
              "internalType": "address",
              "name": "candidateAddress",
              "type": "address"
            }
          ],
          "internalType": "struct VotingContract.Candidate[]",
          "name": "",
          "type": "tuple[]"
        }
      ],
      "stateMutability": "view",
      "type": "function"
    },
    {
      "inputs": [],
      "name": "getVoterRequests",
      "outputs": [
        {
          "internalType": "address[]",
          "name": "",
          "type": "address[]"
        }
      ],
      "stateMutability": "view",
      "type": "function"
    },
    {
      "inputs": [
        {
          "internalType": "address",
          "name": "",
          "type": "address"
        }
      ],
      "name": "hasVoted",
      "outputs": [
        {
          "internalType": "bool",
          "name": "",
          "type": "bool"
        }
      ],
      "stateMutability": "view",
      "type": "function"
    },
    {
      "inputs": [
        {
          "internalType": "address",
          "name": "",
          "type": "address"
        }
      ],
      "name": "iscandidate",
      "outputs": [
        {
          "internalType": "bool",
          "name": "",
          "type": "bool"
        }
      ],
      "stateMutability": "view",
      "type": "function"
    },
    {
      "inputs": [
        {
          "internalType": "address",
          "name": "_candidate",
          "type": "address"
        },
        {
          "internalType": "string",
          "name": "_name",
          "type": "string"
        }
      ],
      "name": "registerCandidate",
      "outputs": [],
      "stateMutability": "nonpayable",
      "type": "function"
    },
    {
      "inputs": [
        {
          "internalType": "address",
          "name": "",
          "type": "address"
        }
      ],
      "name": "registrationRequested",
      "outputs": [
        {
          "internalType": "bool",
          "name": "",
          "type": "bool"
        }
      ],
      "stateMutability": "view",
      "type": "function"
    },
    {
      "inputs": [],
      "name": "requestRegistration",
      "outputs": [],
      "stateMutability": "nonpayable",
      "type": "function"
    },
    {
      "inputs": [
        {
          "internalType": "uint256",
          "name": "candidateId",
          "type": "uint256"
        }
      ],
      "name": "vote",
      "outputs": [],
      "stateMutability": "nonpayable",
      "type": "function"
    },
    {
      "inputs": [
        {
          "internalType": "uint256",
          "name": "",
          "type": "uint256"
        }
      ],
      "name": "voterRequests",
      "outputs": [
        {
          "internalType": "address",
          "name": "",
          "type": "address"
        }
      ],
      "stateMutability": "view",
      "type": "function"
    }
  ],
  "bytecode": "0x6080604052348015600e575f5ffd5b50335f5f6101000a81548173ffffffffffffffffffffffffffffffffffffffff021916908373ffffffffffffffffffffffffffffffffffffffff1602179055505f5f60146101000a81548160ff02191690836002811115606f57606e6078565b5b021790555060a5565b7f4e487b71000000000000000000000000000000000000000000000000000000005f52602160045260245ffd5b6124eb806100b25f395ff3fe608060405234801561000f575f5ffd5b50600436106100fd575f3560e01c80633477ee2e11610095578063b12e1cfc11610064578063b12e1cfc146102ab578063c669413a146102db578063dff5b83e146102e5578063f851a44014610315576100fd565b80633477ee2e146101fd5780636bd6c9a31461022f5780638913d2c41461025f578063b0d30d2f1461028f576100fd565b80630721c297116100d15780630721c2971461017757806309eef43e14610193578063119d4ddb146101c357806314034bd2146101df576100fd565b80624bd2fc146101015780630121b93f1461011f578063055ad42e1461013b57806306a49fce14610159575b5f5ffd5b610109610333565b6040516101169190611606565b60405180910390f35b61013960048036038101906101349190611661565b6103be565b005b6101436106fb565b60405161015091906116ff565b60405180910390f35b61016161070d565b60405161016e919061189f565b60405180910390f35b610191600480360381019061018c91906118e2565b610857565b005b6101ad60048036038101906101a89190611937565b6109cc565b6040516101ba919061197c565b60405180910390f35b6101dd60048036038101906101d89190611937565b6109e9565b005b6101e7610c65565b6040516101f491906119dd565b60405180910390f35b61021760048036038101906102129190611661565b610e1a565b60405161022693929190611a1b565b60405180910390f35b61024960048036038101906102449190611937565b610ef4565b604051610256919061197c565b60405180910390f35b61027960048036038101906102749190611661565b610f11565b6040516102869190611a57565b60405180910390f35b6102a960048036038101906102a49190611ad1565b610f4c565b005b6102c560048036038101906102c09190611937565b611280565b6040516102d2919061197c565b60405180910390f35b6102e361129d565b005b6102ff60048036038101906102fa9190611937565b6114de565b60405161030c919061197c565b60405180910390f35b61031d6114fb565b60405161032a9190611a57565b60405180910390f35b606060068054806020026020016040519081016040528092919081815260200182805480156103b457602002820191905f5260205f20905b815f9054906101000a900473ffffffffffffffffffffffffffffffffffffffff1673ffffffffffffffffffffffffffffffffffffffff168152602001906001019080831161036b575b5050505050905090565b60018060028111156103d3576103d261168c565b5b5f60149054906101000a900460ff1660028111156103f4576103f361168c565b5b14610434576040517f08c379a000000000000000000000000000000000000000000000000000000000815260040161042b90611b78565b60405180910390fd5b60025f3373ffffffffffffffffffffffffffffffffffffffff1673ffffffffffffffffffffffffffffffffffffffff1681526020019081526020015f205f9054906101000a900460ff166104bd576040517f08c379a00000000000000000000000000000000000000000000000000000000081526004016104b490611be0565b60405180910390fd5b60045f3373ffffffffffffffffffffffffffffffffffffffff1673ffffffffffffffffffffffffffffffffffffffff1681526020019081526020015f205f9054906101000a900460ff1615610547576040517f08c379a000000000000000000000000000000000000000000000000000000000815260040161053e90611c48565b60405180910390fd5b600180549050821061058e576040517f08c379a000000000000000000000000000000000000000000000000000000000815260040161058590611cb0565b60405180910390fd5b5f5f9054906101000a900473ffffffffffffffffffffffffffffffffffffffff1673ffffffffffffffffffffffffffffffffffffffff163373ffffffffffffffffffffffffffffffffffffffff160361061c576040517f08c379a000000000000000000000000000000000000000000000000000000000815260040161061390611d3e565b60405180910390fd5b600160045f3373ffffffffffffffffffffffffffffffffffffffff1673ffffffffffffffffffffffffffffffffffffffff1681526020019081526020015f205f6101000a81548160ff0219169083151502179055506001828154811061068557610684611d5c565b5b905f5260205f2090600302016001015f8154809291906106a490611db6565b91905055503373ffffffffffffffffffffffffffffffffffffffff167fa36cc2bebb74db33e9f88110a07ef56e1b31b24b4c4f51b54b1664266e29f45b836040516106ef9190611dfd565b60405180910390a25050565b5f60149054906101000a900460ff1681565b60606001805480602002602001604051908101604052809291908181526020015f905b8282101561084e578382905f5260205f2090600302016040518060600160405290815f8201805461076090611e43565b80601f016020809104026020016040519081016040528092919081815260200182805461078c90611e43565b80156107d75780601f106107ae576101008083540402835291602001916107d7565b820191905f5260205f20905b8154815290600101906020018083116107ba57829003601f168201915b5050505050815260200160018201548152602001600282015f9054906101000a900473ffffffffffffffffffffffffffffffffffffffff1673ffffffffffffffffffffffffffffffffffffffff1673ffffffffffffffffffffffffffffffffffffffff168152505081526020019060010190610730565b50505050905090565b3373ffffffffffffffffffffffffffffffffffffffff165f5f9054906101000a900473ffffffffffffffffffffffffffffffffffffffff1673ffffffffffffffffffffffffffffffffffffffff16146108e5576040517f08c379a00000000000000000000000000000000000000000000000000000000081526004016108dc90611ee3565b60405180910390fd5b5f60149054906101000a900460ff1660028111156109065761090561168c565b5b8160028111156109195761091861168c565b5b03610959576040517f08c379a000000000000000000000000000000000000000000000000000000000815260040161095090611f71565b60405180910390fd5b7feeb345fea22465c927333e05d324ee5b476597701d8be7e5d9aacc60e7aefbaf5f60149054906101000a900460ff1682604051610998929190611f8f565b60405180910390a1805f60146101000a81548160ff021916908360028111156109c4576109c361168c565b5b021790555050565b6004602052805f5260405f205f915054906101000a900460ff1681565b3373ffffffffffffffffffffffffffffffffffffffff165f5f9054906101000a900473ffffffffffffffffffffffffffffffffffffffff1673ffffffffffffffffffffffffffffffffffffffff1614610a77576040517f08c379a0000000000000000000000000000000000000000000000000000000008152600401610a6e90611ee3565b60405180910390fd5b5f806002811115610a8b57610a8a61168c565b5b5f60149054906101000a900460ff166002811115610aac57610aab61168c565b5b14610aec576040517f08c379a0000000000000000000000000000000000000000000000000000000008152600401610ae390611b78565b60405180910390fd5b60055f8373ffffffffffffffffffffffffffffffffffffffff1673ffffffffffffffffffffffffffffffffffffffff1681526020019081526020015f205f9054906101000a900460ff16610b75576040517f08c379a0000000000000000000000000000000000000000000000000000000008152600401610b6c90612000565b60405180910390fd5b600160025f8473ffffffffffffffffffffffffffffffffffffffff1673ffffffffffffffffffffffffffffffffffffffff1681526020019081526020015f205f6101000a81548160ff0219169083151502179055505f60055f8473ffffffffffffffffffffffffffffffffffffffff1673ffffffffffffffffffffffffffffffffffffffff1681526020019081526020015f205f6101000a81548160ff0219169083151502179055508173ffffffffffffffffffffffffffffffffffffffff167f85e209912e11195144f49695f608785c8a31876f9d5d831813c396126a21b48460405160405180910390a25050565b60606002806002811115610c7c57610c7b61168c565b5b5f60149054906101000a900460ff166002811115610c9d57610c9c61168c565b5b14610cdd576040517f08c379a0000000000000000000000000000000000000000000000000000000008152600401610cd490611b78565b60405180910390fd5b5f5f90505f5f5f90505b6001805490508160ff161015610d68578260018260ff1681548110610d0f57610d0e611d5c565b5b905f5260205f209060030201600101541115610d555760018160ff1681548110610d3c57610d3b611d5c565b5b905f5260205f2090600302016001015492508060ff1691505b8080610d609061202a565b915050610ce7565b5060018181548110610d7d57610d7c611d5c565b5b905f5260205f2090600302015f018054610d9690611e43565b80601f0160208091040260200160405190810160405280929190818152602001828054610dc290611e43565b8015610e0d5780601f10610de457610100808354040283529160200191610e0d565b820191905f5260205f20905b815481529060010190602001808311610df057829003601f168201915b5050505050935050505090565b60018181548110610e29575f80fd5b905f5260205f2090600302015f91509050805f018054610e4890611e43565b80601f0160208091040260200160405190810160405280929190818152602001828054610e7490611e43565b8015610ebf5780601f10610e9657610100808354040283529160200191610ebf565b820191905f5260205f20905b815481529060010190602001808311610ea257829003601f168201915b505050505090806001015490806002015f9054906101000a900473ffffffffffffffffffffffffffffffffffffffff16905083565b6005602052805f5260405f205f915054906101000a900460ff1681565b60068181548110610f20575f80fd5b905f5260205f20015f915054906101000a900473ffffffffffffffffffffffffffffffffffffffff1681565b3373ffffffffffffffffffffffffffffffffffffffff165f5f9054906101000a900473ffffffffffffffffffffffffffffffffffffffff1673ffffffffffffffffffffffffffffffffffffffff1614610fda576040517f08c379a0000000000000000000000000000000000000000000000000000000008152600401610fd190611ee3565b60405180910390fd5b5f806002811115610fee57610fed61168c565b5b5f60149054906101000a900460ff16600281111561100f5761100e61168c565b5b1461104f576040517f08c379a000000000000000000000000000000000000000000000000000000000815260040161104690611b78565b60405180910390fd5b60035f8573ffffffffffffffffffffffffffffffffffffffff1673ffffffffffffffffffffffffffffffffffffffff1681526020019081526020015f205f9054906101000a900460ff16156110d9576040517f08c379a00000000000000000000000000000000000000000000000000000000081526004016110d09061209c565b60405180910390fd5b6001604051806060016040528085858080601f0160208091040260200160405190810160405280939291908181526020018383808284375f81840152601f19601f8201169050808301925050505050505081526020015f81526020018673ffffffffffffffffffffffffffffffffffffffff16815250908060018154018082558091505060019003905f5260205f2090600302015f909190919091505f820151815f0190816111889190612287565b50602082015181600101556040820151816002015f6101000a81548173ffffffffffffffffffffffffffffffffffffffff021916908373ffffffffffffffffffffffffffffffffffffffff1602179055505050600160035f8673ffffffffffffffffffffffffffffffffffffffff1673ffffffffffffffffffffffffffffffffffffffff1681526020019081526020015f205f6101000a81548160ff021916908315150217905550600180805490506112419190612356565b7f96b6e1d9af8279de0ae4d01600bcae708bdb292c4a8f8f150aff92f5caf56a4284846040516112729291906123c3565b60405180910390a250505050565b6003602052805f5260405f205f915054906101000a900460ff1681565b5f8060028111156112b1576112b061168c565b5b5f60149054906101000a900460ff1660028111156112d2576112d161168c565b5b14611312576040517f08c379a000000000000000000000000000000000000000000000000000000000815260040161130990611b78565b60405180910390fd5b60055f3373ffffffffffffffffffffffffffffffffffffffff1673ffffffffffffffffffffffffffffffffffffffff1681526020019081526020015f205f9054906101000a900460ff161561139c576040517f08c379a00000000000000000000000000000000000000000000000000000000081526004016113939061242f565b60405180910390fd5b60025f3373ffffffffffffffffffffffffffffffffffffffff1673ffffffffffffffffffffffffffffffffffffffff1681526020019081526020015f205f9054906101000a900460ff1615611426576040517f08c379a000000000000000000000000000000000000000000000000000000000815260040161141d90612497565b60405180910390fd5b600160055f3373ffffffffffffffffffffffffffffffffffffffff1673ffffffffffffffffffffffffffffffffffffffff1681526020019081526020015f205f6101000a81548160ff021916908315150217905550600633908060018154018082558091505060019003905f5260205f20015f9091909190916101000a81548173ffffffffffffffffffffffffffffffffffffffff021916908373ffffffffffffffffffffffffffffffffffffffff16021790555050565b6002602052805f5260405f205f915054906101000a900460ff1681565b5f5f9054906101000a900473ffffffffffffffffffffffffffffffffffffffff1681565b5f81519050919050565b5f82825260208201905092915050565b5f819050602082019050919050565b5f73ffffffffffffffffffffffffffffffffffffffff82169050919050565b5f61157182611548565b9050919050565b61158181611567565b82525050565b5f6115928383611578565b60208301905092915050565b5f602082019050919050565b5f6115b48261151f565b6115be8185611529565b93506115c983611539565b805f5b838110156115f95781516115e08882611587565b97506115eb8361159e565b9250506001810190506115cc565b5085935050505092915050565b5f6020820190508181035f83015261161e81846115aa565b905092915050565b5f5ffd5b5f5ffd5b5f819050919050565b6116408161162e565b811461164a575f5ffd5b50565b5f8135905061165b81611637565b92915050565b5f6020828403121561167657611675611626565b5b5f6116838482850161164d565b91505092915050565b7f4e487b71000000000000000000000000000000000000000000000000000000005f52602160045260245ffd5b600381106116ca576116c961168c565b5b50565b5f8190506116da826116b9565b919050565b5f6116e9826116cd565b9050919050565b6116f9816116df565b82525050565b5f6020820190506117125f8301846116f0565b92915050565b5f81519050919050565b5f82825260208201905092915050565b5f819050602082019050919050565b5f81519050919050565b5f82825260208201905092915050565b8281835e5f83830152505050565b5f601f19601f8301169050919050565b5f61178382611741565b61178d818561174b565b935061179d81856020860161175b565b6117a681611769565b840191505092915050565b6117ba8161162e565b82525050565b5f606083015f8301518482035f8601526117da8282611779565b91505060208301516117ef60208601826117b1565b5060408301516118026040860182611578565b508091505092915050565b5f61181883836117c0565b905092915050565b5f602082019050919050565b5f61183682611718565b6118408185611722565b93508360208202850161185285611732565b805f5b8581101561188d578484038952815161186e858261180d565b945061187983611820565b925060208a01995050600181019050611855565b50829750879550505050505092915050565b5f6020820190508181035f8301526118b7818461182c565b905092915050565b600381106118cb575f5ffd5b50565b5f813590506118dc816118bf565b92915050565b5f602082840312156118f7576118f6611626565b5b5f611904848285016118ce565b91505092915050565b61191681611567565b8114611920575f5ffd5b50565b5f813590506119318161190d565b92915050565b5f6020828403121561194c5761194b611626565b5b5f61195984828501611923565b91505092915050565b5f8115159050919050565b61197681611962565b82525050565b5f60208201905061198f5f83018461196d565b92915050565b5f82825260208201905092915050565b5f6119af82611741565b6119b98185611995565b93506119c981856020860161175b565b6119d281611769565b840191505092915050565b5f6020820190508181035f8301526119f581846119a5565b905092915050565b611a068161162e565b82525050565b611a1581611567565b82525050565b5f6060820190508181035f830152611a3381866119a5565b9050611a4260208301856119fd565b611a4f6040830184611a0c565b949350505050565b5f602082019050611a6a5f830184611a0c565b92915050565b5f5ffd5b5f5ffd5b5f5ffd5b5f5f83601f840112611a9157611a90611a70565b5b8235905067ffffffffffffffff811115611aae57611aad611a74565b5b602083019150836001820283011115611aca57611ac9611a78565b5b9250929050565b5f5f5f60408486031215611ae857611ae7611626565b5b5f611af586828701611923565b935050602084013567ffffffffffffffff811115611b1657611b1561162a565b5b611b2286828701611a7c565b92509250509250925092565b7f57726f6e6720656c656374696f6e2070686173650000000000000000000000005f82015250565b5f611b62601483611995565b9150611b6d82611b2e565b602082019050919050565b5f6020820190508181035f830152611b8f81611b56565b9050919050565b7f4e6f7420616e20617070726f76656420766f74657200000000000000000000005f82015250565b5f611bca601583611995565b9150611bd582611b96565b602082019050919050565b5f6020820190508181035f830152611bf781611bbe565b9050919050565b7f416c726561647920766f746564210000000000000000000000000000000000005f82015250565b5f611c32600e83611995565b9150611c3d82611bfe565b602082019050919050565b5f6020820190508181035f830152611c5f81611c26565b9050919050565b7f4e6f74206120726567697374657265642063616e6469646174652100000000005f82015250565b5f611c9a601b83611995565b9150611ca582611c66565b602082019050919050565b5f6020820190508181035f830152611cc781611c8e565b9050919050565b7f41646d696e206f662074686520636f6e74726163742063616e6e6f7420766f745f8201527f6521000000000000000000000000000000000000000000000000000000000000602082015250565b5f611d28602283611995565b9150611d3382611cce565b604082019050919050565b5f6020820190508181035f830152611d5581611d1c565b9050919050565b7f4e487b71000000000000000000000000000000000000000000000000000000005f52603260045260245ffd5b7f4e487b71000000000000000000000000000000000000000000000000000000005f52601160045260245ffd5b5f611dc08261162e565b91507fffffffffffffffffffffffffffffffffffffffffffffffffffffffffffffffff8203611df257611df1611d89565b5b600182019050919050565b5f602082019050611e105f8301846119fd565b92915050565b7f4e487b71000000000000000000000000000000000000000000000000000000005f52602260045260245ffd5b5f6002820490506001821680611e5a57607f821691505b602082108103611e6d57611e6c611e16565b5b50919050565b7f4f6e6c792061646d696e2063616e2063616c6c20746869732066756e6374696f5f8201527f6e00000000000000000000000000000000000000000000000000000000000000602082015250565b5f611ecd602183611995565b9150611ed882611e73565b604082019050919050565b5f6020820190508181035f830152611efa81611ec1565b9050919050565b7f416c726561647920696e2074686973207068617365206f6620656c656374696f5f8201527f6e00000000000000000000000000000000000000000000000000000000000000602082015250565b5f611f5b602183611995565b9150611f6682611f01565b604082019050919050565b5f6020820190508181035f830152611f8881611f4f565b9050919050565b5f604082019050611fa25f8301856116f0565b611faf60208301846116f0565b9392505050565b7f4e6f20726567697374726174696f6e20726571756573740000000000000000005f82015250565b5f611fea601783611995565b9150611ff582611fb6565b602082019050919050565b5f6020820190508181035f83015261201781611fde565b9050919050565b5f60ff82169050919050565b5f6120348261201e565b915060ff820361204757612046611d89565b5b600182019050919050565b7f43616e64696461746520616c72656164792072656769737465726564000000005f82015250565b5f612086601c83611995565b915061209182612052565b602082019050919050565b5f6020820190508181035f8301526120b38161207a565b9050919050565b7f4e487b71000000000000000000000000000000000000000000000000000000005f52604160045260245ffd5b5f819050815f5260205f209050919050565b5f6020601f8301049050919050565b5f82821b905092915050565b5f600883026121437fffffffffffffffffffffffffffffffffffffffffffffffffffffffffffffffff82612108565b61214d8683612108565b95508019841693508086168417925050509392505050565b5f819050919050565b5f61218861218361217e8461162e565b612165565b61162e565b9050919050565b5f819050919050565b6121a18361216e565b6121b56121ad8261218f565b848454612114565b825550505050565b5f5f905090565b6121cc6121bd565b6121d7818484612198565b505050565b5b818110156121fa576121ef5f826121c4565b6001810190506121dd565b5050565b601f82111561223f57612210816120e7565b612219846120f9565b81016020851015612228578190505b61223c612234856120f9565b8301826121dc565b50505b505050565b5f82821c905092915050565b5f61225f5f1984600802612244565b1980831691505092915050565b5f6122778383612250565b9150826002028217905092915050565b61229082611741565b67ffffffffffffffff8111156122a9576122a86120ba565b5b6122b38254611e43565b6122be8282856121fe565b5f60209050601f8311600181146122ef575f84156122dd578287015190505b6122e7858261226c565b86555061234e565b601f1984166122fd866120e7565b5f5b82811015612324578489015182556001820191506020850194506020810190506122ff565b86831015612341578489015161233d601f891682612250565b8355505b6001600288020188555050505b505050505050565b5f6123608261162e565b915061236b8361162e565b925082820390508181111561238357612382611d89565b5b92915050565b828183375f83830152505050565b5f6123a28385611995565b93506123af838584612389565b6123b883611769565b840190509392505050565b5f6020820190508181035f8301526123dc818486612397565b90509392505050565b7f416c7265616479207265717565737465640000000000000000000000000000005f82015250565b5f612419601183611995565b9150612424826123e5565b602082019050919050565b5f6020820190508181035f8301526124468161240d565b9050919050565b7f416c726561647920617070726f766564000000000000000000000000000000005f82015250565b5f612481601083611995565b915061248c8261244d565b602082019050919050565b5f6020820190508181035f8301526124ae81612475565b905091905056fea264697066735822122027fefb431d6579ebbb3eed299ccf840fc47d1c0bcd9d3b5faab27ae3e765841164736f6c634300081c0033",
  "linkReferences": {},
  "deployedLinkReferences": {},
  "immutableReferences": {},
  "inputSourceName": "project/contracts/votingContract.sol",
  "buildInfoId": "solc-0_8_28-f708772fad20d2d20942b70d7efcedfda6d67d2a"
}